:0200000280007C
:1000000078AD0720852C0800812C0800812C080081
:10001000812C0800812C0800812C080000000000C1
:10002000000000000000000000000000A511080012
:10003000812C080000000000211208005D12080059
:10004000812C0800812C0800812C0800812C0800DC
:10005000812C0800812C0800812C0800812C0800CC
:10006000812C0800812C080000000000F12A080003
:10007000052B0800192B08002D2B0800000000009C
:10008000000000007D0D0800812C0800812C080074
:10009000812C0800812C0800812C0800812C08008C
:1000A000812C080000000000812C0800812C080031
:1000B000812C0800812C0800812C0800812C08006C
:1000C000812C0800812C0800812C0800812C08005C
:1000D000812C0800812C0800812C0800812C08004C
:1000E000812C0800812C0800812C0800812C08003C
:1000F000812C080010B5054C237833B9044B13B19B
:100100000448AFF300800123237010BD000A0720CC
:100110000000000098A1080008B5064B1BB1064876
:100120000649AFF300800648036813B1054B03B1DD
:10013000984708BD0000000098A10800040A0720A5
:1001400098A108000000000000B585B0084B02939C
:10015000084B019300238DF80D301620064B98476D
:10016000064801A9064B984705B05DF804FB00BF9F
:10017000A086010000BD0105292C080000C0084030
:10018000C90108000F4B994219D84900B2FBF1F29E
:10019000043AFF2A07D9002301335208FF2A03D962
:1001A000072BF9D100E00023110289B21B0403F4EC
:1001B000E0230B43D2B21A430261002070470120B2
:1001C000704700BF801A060038B504460D464FF050
:1001D000FF338362036A80230360036B0823036099
:1001E000202303600423036049682A68054B98476D
:1001F000012814BF002001206B7A012B04BF40238B
:10020000236038BD850108002DE9F041161A5F1AF8
:1002100006FB06F407FB0744DFF870802046C04762
:10022000154B984704460D463046C04722462B469C
:10023000124CA047124B98470DA3D3E90023114C51
:10024000A047114B9847002E09DA002F02DD5A30E3
:10025000BDE8F081002F08DAB430BDE8F081002E4F
:1002600003DD002FB8BF00F58770BDE8F08100BF47
:10027000F8C1631ADCA54C4065300800753D0800E4
:10028000BD2F0800213B080055400800553A0800E2
:10029000024B1A6801321A60704700BF200A07201B
:1002A00070B52C4B4FF080621A61C3F8A0202A4928
:1002B0004FF480430B61C1F8A0304FF400434B6111
:1002C000C1F8A030254A02245461C2F8A040082099
:1002D0005061C2F8A0004FF400735361C2F8A0301F
:1002E0004FF480635361C2F8A0301D4B04255D615B
:1002F000C3F8A05001265661C2F8A0605561C2F84B
:10030000A05040255561C2F8A05080224A61C1F832
:10031000A0205C61C3F8A0405861C3F8A0004FF46E
:1003200080705861C3F8A0004FF400205861C3F8F2
:10033000A0004861C1F8A0004FF400315961C3F832
:10034000A0101A61C3F8A0205A630648064B9847CC
:1003500070BD00BF00100E40000E0E4000140E4095
:1003600000120E40BC9C08000141080030B583B06B
:100370000D20104B9847104C20464FF4007101227D
:100380000E4B98470E4B009320460D214FF4007200
:1003900030230C4DA8474FF400520B4B1A602046F7
:1003A0004FF40071094B984709480A4B984703B02E
:1003B00030BD00BF292C080000120E404D28080057
:1003C00091020800B52A080000E100E0D9280800E1
:1003D000C89C0800014108002DE9F047414D002369
:1003E0002B60414C2360414E414F30683968414B8E
:1003F0009847414B1968396031604FF080623F4B3C
:100400005A633F484FF480434363D0F83CA03D4BD0
:10041000D3F83C90D3F83C80D3F83CC0DF6B3A4A29
:10042000D66BCAF3C03AC9F340090AEB4909C8F3CD
:10043000C00809EB8808CCF3402C08EBCC0CC7F3C0
:1004400080270CEB0717C6F3800607EB46162E60D5
:10045000D3F83C80D3F83CC0DF6BC06BD56BD36B5B
:1004600008F00102CCF3800C02EB4C0CC7F38017B0
:100470000CEB8707C0F3C01007EBC000C5F34002C8
:1004800000EB0212C3F3C00302EB431323609B1B78
:100490001E4A1360002B0ADD1D4A126802FB03F39B
:1004A000C81A134A10600B44104A13600FE0002B67
:1004B0000ADA174A126802FB03F3C8180C4A1060E4
:1004C000CB1A0A4A136002E008460A4B98474FF0DD
:1004D00080620A4B1A634FF48042A3F500731A63DB
:1004E000BDE8F087300A07201C0A07202C0A0720E5
:1004F000280A0720A91008003001072000100E402C
:10050000000E0E4000140E4000120E40240A072078
:100510002C0107202DE9F0470546B431664C81FBDC
:10052000046701EB070ACB17C3EB2A2A4FF4B4790F
:1005300009FB1A1A614E304661495246DFF8B48110
:10054000C04730465F4FB847AAF5B47ABAF1000FFA
:10055000B8BFCAF1000AAA448AFB044555444FEAD1
:10056000EA73C3EB252509FB15A9A9F1B4093046A7
:1005700055494A46C0473046B8470023534A13609E
:10058000534A13605348B8474FF48042524B5A6362
:100590004FF0806203F500735A63B9F1000F31DD4B
:1005A000A3F50073DD6B03F5C063DC6BD86BD96B0F
:1005B000DB6B4A4AD26BC5F3C035C4F3400405EB8C
:1005C0004404C0F3C00004EB8000C1F3402100EB01
:1005D000C101C3F3802301EB0313C2F3800203EBD9
:1005E00042123A4B1A604FF4AF604FF4C8613C4B73
:1005F00098473C4B1A6830463B499200C04730460A
:10060000B84742E0B9F1000F3ADA384BDD6BDE6BE8
:10061000DC6BA3F5C063D96B03F58063D86BDA6B31
:1006200005F00105C6F3800305EB4303C4F3801412
:1006300003EB8404C1F3C01104EBC101C0F3400318
:1006400001EB0313C2F3C00203EB4212204F3A60E6
:100650001A4C20462649274EB0472046194DA84738
:100660004FF4C8604FF4AF611D4B98473B68C3EB34
:100670008372204620499200B0472046A84704E0F4
:1006800040F2DC500146164B98470C4D154C28465D
:100690001A492268174B984728460A4B98474FF447
:1006A00080420D4B1A634FF0806203F500731A63AA
:1006B0002068BDE8F08700BFB7600BB6508D0720FB
:1006C000EC9C080001410800009D0800300A07204A
:1006D0001C0A0720149D0800000E0E4000120E4058
:1006E000A9100800200A0720209D080000140E40D1
:1006F000349D0800B9430800449D0800DC9C0800B4
:1007000070B58022214B1A631C46214D214EE36BAC
:1007100013F4807F09D04FF4AF604FF4C8611E4BD3
:1007200098471E481E4B9847F1E7E36B13F4002FE0
:1007300009D04FF4C8604FF4AF61174B9847194880
:10074000174B9847E3E7E36B13F4003F09D04FF4EE
:10075000C8604FF4AF61104B98471348104B98474F
:10076000D5E7EB6B13F4002F03D130460C4B9847C1
:10077000CDE70E480A4B98478022044B5A6340F25B
:10078000DC500146044B9847012070BD00120E401A
:10079000000E0E408C9D0800A9100800589D08000E
:1007A00001410800649D0800709D0800809D0800BC
:1007B00070B50022114C124E124DE36B13F4000F72
:1007C00005D05AB930460021A847012206E0E36B64
:1007D00013F4000FF1D1002AEFD003E0E36B13F420
:1007E000000FEAD1064C20460021074B98470546EA
:1007F00020460021054B9847284670BD00120E4048
:1008000000000840190C0800290C0800210C080001
:100810002DE9F04782B00120002103225A4B98476E
:100820005A4B186020B100210A460B46584CA0478D
:10083000012000210322544B9847564B186020B1E9
:1008400000210A460B46524CA047012000210322FA
:100850004D4B9847504B186020B100210A460B467B
:100860004B4CA047052004210022474B98474B4B97
:1008700018604B484B4B98474B4B9847ADF80600D8
:100880004A4E4B4F3EA5D5E90045DFF878810DF182
:1008900006004FF47A71474B98474FF48009C6F829
:1008A000309042F21070444B9847C6F83490434B56
:1008B000984787FB0023C017C0EBE300404B9847E5
:1008C00022462B46DFF840C1E0473E4B98473E4B5F
:1008D00018603E4B1B68012B03D04DDB032BD6DD8C
:1008E0004AE03B4B18883B4B19883B4B1A883B4BE3
:1008F0001B88DFF818C1E0470246DFF81491C9F8F9
:100900000000DFF810A150463549364B9847504655
:10091000244B9847D9F80000334B1968334B98475C
:10092000D9F80030984207D140F2DC500146304BF4
:1009300098470022254B1A604FF4FA702D4B9847C8
:100940002948016801F5B4712B4B1B68194481FBE0
:100950000823CA18CB17C3EB22224FF4B47303FB4E
:1009600012120260DFF8AC90484624491D4B9847AC
:1009700048460C4B98478AE721480A4B984786E738
:100980009A99999999194D40BD150800440A072074
:10099000151608004C0A0720400A0720480A0720BD
:1009A000A89D080001410800591C080000120E40D3
:1009B000310CC330AD1E080025100800B107080037
:1009C000553A080055400800380107203C0107202F
:1009D000520A0720500A0720340107203601072059
:1009E000B89D0800B94308003C0A07201505080017
:1009F000A9100800451F0800340A0720CC9D0800F4
:100A0000E09D0800B7600BB6753D080009020800BC
:100A1000380A0720508D072010B50848084CA04719
:100A2000084B4FF480021A61C3F8A0204FF4000273
:100A30005A61C3F8A0200448A04710BDF09D0800EB
:100A40000141080000120E40009E08002DE9F0410F
:100A500082B0274B9847ADF80200264E264D274C12
:100A6000DFF8D4800DF102000A21B0472868002188
:100A700064220B46A0470028F4D0D8F8000001A952
:100A800014220023A04748B11D4F38461D49019A42
:100A90001D4B984738461D4B984702E01C481B4B9E
:100AA0009847019B012B05D0022B12D0E3B9194BBB
:100AB0009847D7E7184B1868184B1968184B984790
:100AC00018B10322174B1A60CCE717480F4B984711
:100AD000C8E7164B984718B10322124B1A60C1E7BA
:100AE00013480A4B9847BDE71248084B9847B9E7A7
:100AF000591C0800AD1E08004C0A0720C917080041
:100B0000508D0720189E0800B943080001410800D5
:100B1000289E0800D903080044010720400107204F
:100B200015050800540A07203C9E0800010708002C
:100B3000549E0800689E0800480A072070B582B0DD
:100B4000054B984702AC24F8020D3226034D20468F
:100B50003146A847FBE700BF591C0800AD1E08003E
:100B60002DE9F0410C46904660B9002A0EDD8F1841
:100B7000094E0A4D306821462B6898470134BC4223
:100B8000F8D106E04FF0FF30BDE8F0810020BDE86D
:100B9000F0814046BDE8F0816C8D0720648D072010
:100BA0002DE9F0410E461546013802280FD892B1C2
:100BB0000024DFF83C800D4FD8F80000315D3B6821
:100BC000984700280ADB0134A542F5D10AE04FF02E
:100BD000FF30BDE8F0810020BDE8F0814FF0FF302C
:100BE000BDE8F0812046BDE8F08100BF688D072098
:100BF0006C8D072010B489014318022444504FF033
:100C0000FF319962196A5A605DF8044B704700BF62
:100C1000C0F8C410704700BF8901052343507047D6
:100C2000890102234350704700EB81110869704726
:100C3000436913F0020F1DBFC1F30801C161002019
:100C400001207047436913F0010F05D08369C3F396
:100C500008030B6000207047012070472DE9F04F1A
:100C600083B005469046002A47D04E1C254F264C9F
:100C7000DFF8A8A0DFF894B006F1FF390023019354
:100C8000224B9D4206D158464946214B98470028A1
:100C9000F9D119E01F4B9D4209D19946484601A957
:100CA000A0470028FAD1019B06F8013C17E01A4B37
:100CB0009D4209D19946484601A9A0470028FAD18A
:100CC000019B06F8013C14E0554508D1504601A9A6
:100CD000A0470028FAD1019B06F8013C09E0BD427B
:100CE00007D1384601A9A0470028FAD1019B06F890
:100CF000013C0136B8F10108BED1002003B0BDE8C7
:100D0000F08F00BF00400A40450C080000080E406C
:100D1000690D08000080094000C0094000000A4039
:100D200010B4AC2303600A684B68B2FBF3F31B09F1
:100D30005C1E4FF6FE7294420AD803628B684360D1
:100D400040F20223C0F8203150230360002000E06D
:100D500001205DF8044B7047436913F0020F1ABF7E
:100D6000C161002001207047436913F0010F1DBFCE
:100D700083690B7000200120704700BF00B583B06D
:100D800011480DF107010122104B984772B6BFF3CD
:100D90005F8F00220E4B1A700E4B1B789DF80710C8
:100DA0000D4AD1549B2B03D100220A4B1A7002E04A
:100DB0000133084A13700122054B1A70BFF35F8F8D
:100DC00062B603B05DF804FB008009405D0C0800CA
:100DD00052010720F40A0720580A0720F0B583B013
:100DE00004460D46002301931F4B984207D11F462E
:100DF0001E4E38462946B0470028FAD119E01C4B50
:100E0000984209D11F461B4E384601A9B047002819
:100E1000FAD1019B2B7019E0174B984209D11E465D
:100E2000144C304601A9A0470028FAD1019B2B7031
:100E300018E0124B9C4209D11E460E4C304601A9C7
:100E4000A0470028FAD1019B2B700BE00C4B9C4271
:100E500008D11E46074C304601A9A0470028FAD108
:100E6000019B2B7003B0F0BD00080E40690D080017
:100E700000800940450C080000C0094000000A40FD
:100E800000400A4070B50C46214B984207D11E46DF
:100E9000204D30462146A8470028FAD12BE01E4BB2
:100EA000984207D11E461D4D30462146A8470028CE
:100EB000FAD122E01A4B984207D11E46174D304610
:100EC0002146A8470028FAD119E0164B984207D1CD
:100ED0001E46124D30462146A8470028FAD110E0A0
:100EE000114B98420FD11E460C4D30462146A84763
:100EF0000028FAD109E0012070BD012070BD012059
:100F000070BD012070BD002070BD012070BD00BF0C
:100F100000080E40590D080000800940310C0800FF
:100F200000C0094000000A4000400A4030B585B0CA
:100F30000820194DA847194C194B1C60194A1A4B27
:100F40001A601A4A1A4B1A601A4B01934FF4E13394
:100F500002934FF4006303930820A847204601A999
:100F6000154B9847154D2B6898680021144CA047E5
:100F70002B6858680021A0471248134CA04713481B
:100F8000A04713481349A04713481449144AA047DF
:100F90001448A04705B030BD292C080000080E40B9
:100FA0006C8D0720850E0800688D0720DD0D080078
:100FB000648D072000BD0105210D0800880507206C
:100FC000A9420800749E080001410800849E0800A0
:100FD000989E0800A09E0800B09E0800C89E0800C9
:100FE000D49E0800E09E080010B51B20084B9847CF
:100FF000084C204600210A46074B9847204600210E
:10100000064B984720460021054B984710BD00BF6E
:10101000292C080000000840F50B0800110C0800FE
:10102000210C0800F8B5044609480021094B9847EF
:101030002A2707FB04F7064E0025074C30462946B1
:10104000A047B842FAD302480021044B9847F8BDA4
:1010500000000840190C0800290C0800210C0800A9
:10106000044B10221A61C3F8A02020221A61C3F891
:10107000A020704700120E4038B5034C10252563A0
:10108000024B9847656338BD00120E4025100800DA
:1010900038B5034C20252563024B9847656338BD5E
:1010A00000120E402510080010B50C46044B98475E
:1010B0002046044B984741F28240034B984710BDAD
:1010C00079100800911008002510080000F10803AD
:1010D00043604FF6FF720281C36003610023036027
:1010E000704700BF00230361704700BF43685A6820
:1010F0004A6042688A605A6891605960416008613C
:10110000036801330360704710B40C884FF6FF7317
:101110009C4201D103690CE000F10803C268128807
:1011200092B2944205D35B685A68128892B2944294
:10113000F9D25A684A6091608B605960086103680F
:10114000013303605DF8044B704700BF4368826859
:101150009A60836842685A6003695A68824204BF91
:1011600082685A60002202611A68013A1A6018689F
:10117000704700BF03480068006880F3088862B6C3
:1011800000DF00BF08ED00E04FF0807340F8043C42
:1011900040F8081C002340F80C3C40F8202C403854
:1011A000704700BF064B19680868B0E8F00F80F37D
:1011B00009884FF0000080F311884EF00D0E704743
:1011C000208C07204FF08052014B1A60704700BFFF
:1011D00004ED00E0EFF311804FF0A00181F31188DE
:1011E0007047002008B5034B9847034B1A6801323B
:1011F0001A6008BDD51108004801072080F3118846
:10120000704700BF08B5044A1368013B136013B967
:101210000020024B984708BD48010720FD11080037
:10122000EFF309800C4B1A6820E9F00F10602DE9EC
:1012300008404FF0A00080F3118800F0EBFE4FF063
:10124000000080F31188BDE8084019680868B0E81C
:10125000F00F80F309887047208C072008B54FF005
:101260008052054B1A60054B9847054B9847002064
:10127000044B984708BD00BF04ED00E0D5110800FD
:10128000791C0800FD110800034A044B1A6007226C
:10129000043B1A60704700BF1F48010014E000E0E3
:1012A00010B5094B1A6842F470021A601A6842F0CD
:1012B00070421A60054B98470024054B1C60054B93
:1012C0009847204610BD00BF20ED00E089120800BD
:1012D000480107207511080030B4134A136883428F
:1012E00001D21A46FAE7114654681519854203D10E
:1012F000686804445460104642688418A3420CD1C4
:101300000A4C24689C4206D05B681A4442600B6811
:101310001B68036002E0036000E00360814218BFC5
:10132000086030BC704700BFFC8A0720F88A07209D
:1013300038B50446284B9847284B1B689BB9284A68
:10134000284B13600021516047F6F0729818234D26
:10135000286047F6F475595199505A601860224B2D
:101360001A68103A1A60002C2DD004F1100212F005
:10137000070F1CBF22F007020832511E47F6FE730A
:10138000994222D816490C6863689A4204D92368A6
:1013900013B121461C46F7E7104B1B689C4216D040
:1013A0000D68103523680B6063689B1A202B04D9E5
:1013B000A018436062600D4B98470B4B1A68616838
:1013C000521A1A6004E0002502E0002500E0002522
:1013D000074B9847284638BD491C0800F88A072063
:1013E000FC8A0720F80A07204C010720D9120800C0
:1013F000A51D080010B5044668B1074B9847074B78
:10140000196854F80C2C0A441A60A4F11000044B1B
:101410009847044B984710BD491C08004C01072011
:10142000D9120800A51D080010B50446036C3BB98D
:1014300003681BBB4068134B9847002363601DE0A3
:101440006AB980681A46104B9847A268236C134407
:10145000A3606268934211D32368A3600EE0C06862
:101460001A46094B9847226C5242E3681344E360E2
:1014700021688B4202D263681A44E260A36B013395
:10148000A36310BD3D2308002941080038B5034679
:1014900005685DB1026CC4681444C460406884424D
:1014A00028BFDD600846D968014B984738BD00BFAA
:1014B00029410800F8B504461D4B9847A36C002B42
:1014C00012DD636A83B104F124061A4D1A4F01E05C
:1014D000636A4BB13046A84700B1B847A36C013BE3
:1014E000A364A36C002BF3DC4FF0FF33A364134B16
:1014F00098470F4B9847636C002B12DD236983B12B
:1015000004F110060B4D0C4F01E023694BB130463E
:10151000A84700B1B847636C013B6364636C002B60
:10152000F3DC4FF0FF336364044B9847F8BD00BF12
:10153000E511080051210800892208000512080061
:1015400038B50D46044618B9164B984700BFFDE75D
:10155000154B98472368226CE06B00FB02F01918CA
:1015600061600021A163A360821A1344E3604FF01D
:10157000FF336364A36455B923697BB104F11000A0
:101580000A4B9847012809D1094B984706E004F116
:101590001000084DA84704F12400A847064B9847BF
:1015A000012038BDD5110800E511080051210800BF
:1015B000C5110800CD10080005120800F8B50D4649
:1015C0001746064688B150200E4B9847044660B136
:1015D00005FB06F001300B4B9847206040B92046D0
:1015E000094B984701E000BFFDE7084B9847FAE731
:1015F000E663256420460121054B984784F84D7029
:101600002046F8BD31130800F5130800D511080075
:10161000411508002DE9F04F85B08A469B46ADF88C
:101620000620044618B9384B984700BFFDE709B9B2
:10163000036C1BB90027354E354D03E0324B9847FC
:1016400000BFFDE7B047A26BE36B9A4212D220467F
:1016500051465A462F4B9847636A3BB104F1240028
:101660002D4B9847012801D12C4B9847284B984780
:10167000012046E0BDF806301BB9254B98470020F5
:101680003FE01FB902A8264B98470127A847254BE2
:101690009847B047636CB3F1FF3F04BF0023636416
:1016A000A36CB3F1FF3F04BF0023A364A84702A8C3
:1016B0000DF106011C4B9847E8B9B047D4F83890B3
:1016C000D4F83C80A847C1450FD104F11000BDF803
:1016D0000610164B98472046154B9847154B9847D0
:1016E0000028AFD10D4B9847ACE72046104B9847E8
:1016F000104B9847A6E720460D4B98470D4B98474F
:10170000002005B0BDE8F08FD5110800E5110800F4
:10171000051208002914080051210800C51108000D
:10172000D5210800491C0800FD210800A52008005B
:10173000B5140800A51D08002DE9F0410E46154618
:101740009846044618B91C4B984700BFFDE729B9D5
:10175000036C1BB1184B984700BFFDE7164B984729
:101760000746A26BE36B9A4218D2204631464246A6
:10177000124B9847A36CB3F1FF3F0AD1636A7BB168
:1017800004F124000E4B984760B16DB101242C6028
:101790000BE0A36C0133A364012406E0002404E001
:1017A000012402E0012400E001243846054B98475B
:1017B0002046BDE8F08100BFD511080029140800BB
:1017C00051210800FD1108002DE9F04F85B0894630
:1017D0009A46ADF80620044618B9464B984700BF14
:1017E000FDE709B9036C2BB90027434EDFF838B188
:1017F000424D03E03F4B984700BFFDE7B047A36B66
:10180000002B28D0E568204649463D4B9847BAF161
:10181000000F12D1A36B013BA363236813B9394BAB
:1018200098476060236993B104F11000364B9847E4
:1018300001280CD1354B984709E0E560636A33B164
:1018400004F12400304B984708B1304B98472B4B9C
:10185000984701204BE0BDF806301BB9274B98474D
:10186000002044E017B902A8D8470127A847284B11
:101870009847B047636CB3F1FF3F04BF0023636434
:10188000A36CB3F1FF3F04BF0023A364A84702A8E1
:101890000DF106011F4B984718BBB047D4F83880AC
:1018A000A847B8F1000F16D1236823B9B047606884
:1018B000194B9847A84704F12400BDF80610174BB0
:1018C00098472046164B9847164B9847002895D1C5
:1018D0000E4B984792E72046114B9847114B98477B
:1018E0008CE720460E4B98470E4B9847002005B0DA
:1018F000BDE8F08FD5110800E511080005120800B9
:101900008D1408009522080051210800C511080017
:10191000491C0800FD210800C1220800A52008007C
:10192000B5140800A51D0800D521080038B50446E7
:101930000D460D4B9847636CB3F1FF3F04BF002386
:101940006364A36CB3F1FF3F04BF0023A364074BA0
:101950009847A36B23B904F124002946044B984708
:101960002046044B984738BDE511080005120800D1
:1019700009210800B514080010B504460F4B1B6878
:1019800098800F4B1B889BB2984207D20D4B18686A
:101990000A4B196804310C4B984710BD0B4B186863
:1019A000064B19680431084B9847094B1B889BB2BA
:1019B0009C423CBF064B1C8010BD00BF208C072002
:1019C0003C8C0720408C0720091108001C8B072045
:1019D000500107202DE9F84F0E4617469A460A9DFA
:1019E000DDF83080814618B9624B984700BFFDE7AB
:1019F000092D03D95F4B984700BFFDE750205E4B90
:101A000098470446002800F0B180B8F1000F40F07C
:101A1000A980B800584B9847206318B92046574B07
:101A20009847A3E0A521BA00554B984707F1804796
:101A3000013F236B03EB870323F0070B04F1340012
:101A4000314610224F4B9847002384F84330092D2C
:101A500034BF2E460926E662E664271D3846DFF8C5
:101A60007081C04704F11800C0472461C6F10A061E
:101A700026836462584649465246434B9847206045
:101A800010F0070F03D03B4B984700BFFDE70B9BBF
:101A900003B11C603D4B98473D4B1A6801321A60F8
:101AA0003C4B1B682BBB3B4B1C60394B1B68012B11
:101AB00029D1394E06F1C809DFF8E0803046C04729
:101AC00014364E45FAD1DFF80C914846334EB047F4
:101AD000DFF804814046B0473148B0473148B0474D
:101AE0003148B047314BC3F80090314BC3F8008008
:101AF00009E0304B1B6833B9264B1B68DB6A9D42FB
:101B000024BF244B1C60E36A2B4A1268934284BFB3
:101B1000294A1360294A1168616401311160284A19
:101B20001268934284BF264A136003EB83031A486A
:101B300000EB83003946234B9847234B98471D4BB6
:101B40001B684BB1134B1B68DB6A9D4207D91F4BC7
:101B500098470120BDE8F88F0120BDE8F88F0120EB
:101B6000BDE8F88FC0F8308040465BE74FF0FF30AB
:101B7000BDE8F88FD511080031130800F5130800EF
:101B8000154208006544080089110800E5110800A5
:101B9000608C0720208C0720548B0720CD10080074
:101BA000248C0720288B0720088B07201C8B0720FC
:101BB000408C0720208B0720648C0720448C072052
:101BC000508B0720ED10080005120800C511080011
:101BD000E5100800488C07203C8B072010B584B026
:101BE000002300930193029303930F480F494FF48E
:101BF00080720F4CA04701280ED10E4B9847012848
:101C00000AD10D4B984701220C4B1A6000220C4B55
:101C10001A800C4B984704E018B9074B984700BF4F
:101C2000FDE704B010BD00BF911F0800009F080031
:101C3000D519080039240800D5110800208B072089
:101C40003C8C0720A1120800024B1A6801321A606E
:101C5000704700BF1C8C072010B5044B9847044BFD
:101C60001C88A4B2034B9847204610BDE51108001C
:101C70003C8C0720051208002DE9F0413D4B1B6804
:101C8000002B71D13C4B1A88013292B21A801B880A
:101C90009BB203BB394B1B681B681BB1384B984781
:101CA00000BFFDE7354B1968364A106818601160AF
:101CB000354A1168013111601B681B6823B94FF662
:101CC000FF72324B1A8006E02C4B1B68DB68DB6826
:101CD0009A882E4B1A80284B1A8892B22B4B1B885D
:101CE0009BB29A4244D3254B1B681B6853B1234BCC
:101CF0001B68DB68DC68A3881F4A128892B2934293
:101D000014D90FE04FF6FF72204B1A80BDE8F08126
:101D10001A4B1B68DB68DC68A388174A128892B2EA
:101D2000934207D9194A1380BDE8F081184E194F24
:101D3000DFF86C80251D2846B047A36A13B104F173
:101D40001800B047E36A3A68934288BF3B6003EBF0
:101D5000830008EB800029460F4B9847074B1B6810
:101D60001B68002BD4D1CDE70C4B1A6801321A60E6
:101D7000BDE8F0811C8C07203C8C07201C8B0720C1
:101D8000D5110800408C0720388C0720500107200F
:101D90004D110800508B0720ED100800048B072020
:101DA000548B07202DE9F843314B1B681BB9314B8D
:101DB000984700BFFDE7304B98472D4B1A68013A12
:101DC0001A601B68002B48D12C4B1B68002B46D097
:101DD0000025DFF8D4802A4F2A4E1DE0D8F80C30B9
:101DE000DC6804F11800B84704F104094846B84714
:101DF000E36A3268934288BF336003EB830322486F
:101E000000EB83004946214B9847214B1B68E26A4F
:101E1000DB6A9A4228BF0125D8F80030002BDDD1BB
:101E20001C4B1B6863B11B4B1B687BB11A4D194CD3
:101E3000A8472368013B23602368002BF8D105E005
:101E4000012D03D0154B1B68012B0AD10022134B27
:101E50001A60134B9847012404E0002402E0002498
:101E600000E000240F4B98472046BDE8F88300BFF0
:101E70001C8C0720D5110800E5110800608C072094
:101E80004D110800508B0720548B0720ED100800DF
:101E9000208C0720048B0720791C08005C8C07200D
:101EA000C511080005120800248C072038B50C461F
:101EB000054618B91B4B984700BFFDE719B9194BE8
:101EC000984700BFFDE7184B98472B881C44A4B2E5
:101ED000164A128892B2934208D9A3421ED9134BD4
:101EE0001B889BB22C809C4210D907E0A34213D8D8
:101EF0000E4B1B889BB29C420ED80FE00C4B18680F
:101F000004300C4B984720460B4B98470B4B984797
:101F100030B90B4B984738BD2C80EFE72C80F5E7A4
:101F200038BD00BFD5110800491C08003C8C0720B3
:101F3000208C07204D11080079190800A51D080004
:101F4000C511080010B5044680B10A4B98470A4BEA
:101F50001B881C44A4B2094B18680430084B9847EE
:101F60002046084B9847084B984708B9074B9847B5
:101F700010BD00BF491C08003C8C0720208C0720A6
:101F80004D11080079190800A51D0800C5110800A9
:101F900080B5154D154EDFF878801CE0144B98473E
:101FA000144B1C68144B9847ACB1144B9847114B19
:101FB000DB68DC68201D124B9847124B1A68013A07
:101FC0001A602B68013B2B600F4B9847206B0F4F1B
:101FD000B8472046B8472B68002BDFD13368012B68
:101FE000F9D9C047F7E700BF248B0720548B07209F
:101FF000491C0800288B0720A51D0800E5110800D2
:102000004D110800608C072005120800F513080028
:10201000C511080008B51D4B1B685BB91C4B1B683C
:1020200003EB83039B001B4AD358CBB9184B1B68A7
:1020300053B905E00122184B1A6008BD1A682AB985
:10204000164B984700BFFDE7114B12491A68013A39
:102050001A601A6802EB820251F82220002AEDD0A1
:102060000B4B1B6803EB83030A4A02EB83035A689A
:1020700052685A6003F108018A4204BF52685A60EC
:102080005B68DA68064B1A6008BD00BF1C8C07202D
:10209000508B0720548B07205C8C0720D51108003B
:1020A000208C072038B50C4618B90F4B984700BF55
:1020B000FDE70E4D296818310D4B9847286804300C
:1020C0000C4B98474FF6FF739C4205D129680A488C
:1020D00004310A4B984738BD094B1888204480B218
:1020E000084B984738BD00BFD5110800208C072049
:1020F000091108004D110800088B0720ED10080099
:102100003C8C07207919080038B50D4618B90A4BE0
:10211000984700BFFDE7094C21681831084B9847E4
:1021200020680430074B9847074B1888284480B232
:10213000064B984738BD00BFD5110800208C0720FA
:10214000ED1008004D1108003C8C0720791908009B
:1021500038B5C368DC681CB9164B984700BFFDE76B
:1021600004F118052846144B9847144B1B689BB97B
:10217000251D2846104B9847E36A114A126893427E
:1021800084BF0F4A136003EB83030E4800EB830008
:1021900029460D4B984703E00C4829460A4B9847BF
:1021A0000B4B1B68E06ADB6A984234BF00200120B9
:1021B00038BD00BFD51108004D1108001C8C072048
:1021C000508B0720548B0720ED100800248C07202B
:1021D000208C072008B518B9054B984700BFFDE7CC
:1021E000044A12680260044A1288828008BD00BF57
:1021F000D5110800388C07203C8C072038B50D46D7
:10220000044618B91A4B984700BFFDE719B9184B97
:10221000984700BFFDE7174B98472B884FF6FF7292
:1022200093421CD0144A116822688A4205D0134A8E
:10223000128892B2A188914213D9104A1188A288BB
:10224000891A89B28B420ED90C49098889B2521A6F
:1022500013442B8020460A4B9847002404E00024B6
:1022600002E0012400E00124064B9847204638BDD7
:10227000D5110800E5110800388C07203C8C072098
:10228000D5210800051208000122014B1A60704791
:102290005C8C0720014B1868704700BF208C07201A
:1022A000054B1B6833B1054B1B68002B14BF022084
:1022B0000120704700207047208B07201C8C0720CE
:1022C00038B5044600282ED0C36A174A1268D26A6D
:1022D000934228D2144A1268D26AC2F10A020283D7
:1022E00003EB8303114A02EB830342699A4216D13E
:1022F000051D28460E4B98470B4B1B68DB6AE362B3
:102300000C4A1268934284BF0A4A136003EB8303AA
:10231000064800EB83002946074B984738BD024B1F
:102320001B68DB6AC36238BD208C0720548B0720F2
:102330004D110800508B0720ED10080038B50446F9
:10234000D0B1C26AC36C9A4216D0051D28460B4B09
:102350009847E36CE362C3F10A022283084A1268D9
:10236000934284BF064A136003EB8303054800EBE6
:1023700083002946044B984738BD00BF4D11080023
:10238000508B0720548B0720ED10080010B5044631
:102390008180206191420BD8D31A018B9BB2994264
:1023A00011D90B4B1868211D0A4B9847002010BD0E
:1023B0009A4201D2994208D2074B1868211D054B59
:1023C0009847002010BD012010BD012010BD00BFA6
:1023D0009C8C072009110800688C072070B50D4BF4
:1023E00098470D4B1B688BB90C4D28460C4EB047D7
:1023F0000C4C2046B0470C4B1D600C4B1C6005205C
:102400000C2100220A4B9847034B1860094B984750
:1024100070BD00BFE5110800988C07206C8C072068
:10242000CD100800808C0720688C07209C8C07202A
:10243000BD1508000512080010B584B00B4B984775
:102440000B4B1B6863B10923009300230193029394
:102450000393084808494FF40072084CA04718B984
:10246000074B984700BFFDE704B010BDDD2308000F
:10247000988C072099250800089F0800D5190800A6
:10248000D511080010B584B0104C2468D4B1019166
:10249000ADF80820039073B90D4B984701280B4BFA
:1024A000186801A907BFBDF81820002300221346B1
:1024B000084CA04707E0204601A91A460023064C15
:1024C000A04700E0002004B010BD00BF988C07209A
:1024D000A122080015160800391708002DE9F04759
:1024E00082B08146244B98478046244B1B88834208
:1024F00037D9234E234F27E0DA68B2F800A01FFA3D
:102500008AFADB68DC68251D2846B847636A2046DE
:102510009847E369012B17D1238B53449BB2534552
:1025200006D9A380246130682946174B98470BE0F1
:1025300000230093204619465246144CA04718B970
:10254000134B984700BFFDE733681A68002AD3D1C0
:10255000104A11680A48016013600123C9F800306D
:1025600002E00023C9F80030044BA3F80080404685
:1025700002B0BDE8F08700BF591C0800948C07200A
:10258000688C07204D1108000911080085240800F7
:10259000D51108009C8C07202DE9F04387B0514DE0
:1025A000DFF87081504B1B681A68002A00F0908099
:1025B000DB681E88B6B24D4B984703A84C4B984732
:1025C0000746039B002B32D1864225D8494B9847BA
:1025D000454B1B68DB68DC68201DC047E369012BA5
:1025E00015D1218B3144204689B23A463346424FB9
:1025F000B84701280BD100230093204619463246E4
:102600003E4EB04718B93E4B984700BFFDE7636A9E
:10261000204698470DE00026F11B286889B2394B07
:102620009847344B984720B9374B984701E0314BD6
:10263000984702A82E4B98470746344EDFF8B890CB
:102640003EE0059C1CB1616909B1201DC04703999A
:10265000022923D0032930D0002931D1BDF8103010
:10266000218B1944204689B23A46C847012827D110
:10267000636A20469847E369012B21D1228BBDF87C
:1026800010301A44002300932046194692B21B4C86
:10269000A047A8B91A4B984700BFFDE7BDF8103016
:1026A00023831BB9164B984700BFFDE7F918204656
:1026B00089B23A463B46C84702E02046144B984749
:1026C000286803A900221346B0470028B9D169E75A
:1026D000064B984703A8064B98470746039B002BD9
:1026E00099D0A4E7988C0720688C0720491C080023
:1026F000DD240800A51D08008D230800852408009E
:10270000D51108002D190800C5110800C9170800C7
:10271000F51308004D11080010B50E480E4B9847F0
:1027200000203E210D4B98470D4CA0470028FCD0BF
:102730000C4B98470C4A0D4B9A620D4CA047002851
:10274000FCD010200B4B98470B4B98470148024B8D
:10275000984710BD00BD0105A5000720A52B080066
:10276000F92B0800092C0800013F0D2000060E403F
:10277000192C0800412B0800352D080010B54FF426
:1027800000421A4B5A600B20194CA0470C20A0475E
:102790000D20A0470E20A0473B204FF06051154C64
:1027A000A04755204FF06051A04756204FF0605190
:1027B000A04768201049A0475C201049A047104856
:1027C0004FF440710F4A104B984711204FF00061B1
:1027D000A04712204FF00061A0472B204FF000616E
:1027E000A0472A204FF00061A04710BD501A0E40AC
:1027F000292C0800E9280800790000280100002899
:10280000000E0E4001000008BD2908004264B1F12D
:10281000805F16D004D8C1B1B1F1006F0AD013E0C7
:10282000B1F1405F11D0B1F1605F0ED0B1F1205F26
:102830000AD17047036F016F0B4023EA020303675D
:1028400002E0036F1343036742607047416412F074
:10285000010F14BF4166016612F00A0F14BF016236
:10286000416212F0020F02D0C0F8801004E012F0B2
:10287000080F18BFC0F8841041610160704700BFA5
:1028800010B44164019C0CB1416600E001660BB1DB
:10289000016500E041650AB1016300E04163016147
:1028A00001605DF8044B704712F0100F10D0C0F8B3
:1028B000B01012F0200F14BFC0F8D410C0F8D01020
:1028C00012F0400F14BFC0F8C010C0F8C410704719
:1028D000C0F8B410704700BFC36C0164704700BFFC
:1028E000C06C7047806C704770B582B00D4644096B
:1028F00004F5001404F20774660201F0F044B4F128
:10290000205F30D006D8B4F1006F0AD0B4F1805FF8
:1029100018D049E0B4F1405F30D0B4F1605F2DD001
:1029200042E000F01F000124844030464FF0006177
:1029300022461F4B984715F0010F14BF746634668A
:10294000012032E000F01F000124844030464FF0A7
:1029500080512246164B984715F0010F14BF74663C
:102960003466012021E000F01F010124304604FA02
:1029700001F12A460F4B9847204616E000F01F0150
:10298000012405F0605205EA04030093304604FA7E
:1029900001F1B2F1605F14BF00220122C5F3800390
:1029A000054DA847204600E0002002B070BD00BFE2
:1029B0000D2808004D28080081280800F0B583B0D4
:1029C00007460E46154602F0F044B4F1205F26D0CB
:1029D00006D8B4F1006F0AD0B4F1805F13D034E0B0
:1029E000B4F1405F1FD0B4F1605F1CD02DE04FF018
:1029F00000613246164B984715F0010F14BF7E66F2
:102A00003E66012022E04FF080513246104B98473D
:102A100015F0010F14BF7E663E66012016E00D4BD7
:102A20009847012012E005F0605205F00103009381
:102A300038463146B2F1605F14BF00220122C5F36F
:102A40008003054CA047012000E0002003B0F0BD4A
:102A50000D2808004D280800812808002DE9F041C4
:102A600004460E46104B9847054620460F4B9847A4
:102A7000054017D00E4F07F10C046C3754F80C3C8E
:102A8000B3420AD154F8081C294206D023683046C4
:102A9000984754F8083C25EA0305BC4202D010349C
:102AA000002DEBD1BDE8F081E1280800E528080001
:102AB000A48C0720F8B50B4C2468062C10D80A4FBC
:102AC0002601BD19B9516A60AB600699E96001340D
:102AD00004490C6011461A46044B98470020F8BD83
:102AE0000120F8BDA08C0720A48C0720A92808008D
:102AF00008B502480B21024B984708BD000E0E4056
:102B00005D2A080008B502480C21024B984708BD11
:102B100000100E405D2A080008B502480D21024B46
:102B2000984708BD00120E405D2A080008B502480B
:102B30000E21024B984708BD00140E405D2A080084
:102B4000174B1A6B22F07002104318639B6E13F040
:102B5000080F09D14FF40063114901E0013B19D07E
:102B60008A6E12F0080FF9D00D4B1A6B22F0030297
:102B700042F002021A63986E10F008000CD14FF474
:102B80000063074901E0013B08D08A6E12F0080F8C
:102B9000F9D070470120704700207047012070472E
:102BA00000060E4038B111490B6A114A1A40114B08
:102BB00013430B6270470D4A136A23F45C1323F02E
:102BC000030343F45C1343F00103090289B20B438E
:102BD0001362936E13F0010FFBD0044A136A43F0A3
:102BE0009B7343F480331362704700BF00060E40AE
:102BF000FCFFC8FE02003701024B986E00F48030E3
:102C0000704700BF00060E404FF00052014B9A6221
:102C1000704700BF00060E40024B986E00F00200A5
:102C2000704700BF00060E402C2820D81F280DD862
:102C3000124B9A69012383401A40934219D0012311
:102C400003FA00F00D4B1861002070470B4BD3F8CE
:102C500008212038012383401A4093420BD00123DE
:102C600003FA00F0054BC3F8000100207047012073
:102C70007047002070470020704700BF00060E40DC
:102C8000FEE700BF10B51E4B1E4A9A4203D01E4BF2
:102C90001B4A9A4204D31D4B1D4A9A420FD31AE095
:102CA0001C4B1D4CE41A24F0030404340023144884
:102CB00014495A581A500433A342FAD1EBE7174B80
:102CC0001749C91A21F003011A1D1144002243F8C3
:102CD000042F8B42FBD1134A22F0604323F07F0381
:102CE00011498B6002F16042B2F5801F03D28A68FD
:102CF00042F000528A600D4B98470D4B9847FEE713
:102D00000000072098A10800FC090720748D072007
:102D1000000A072004000720FF090720FC090720FC
:102D20006F8D07200000080000ED00E0B1400800B2
:102D3000BD2E08003E4B1B6B03F00303032B5FD833
:102D4000DFE803F0020E2B2B3A4B5B6913F0800F88
:102D500014BF4FF400424FF4FA42374B1A604FE071
:102D6000334B1B6A13F0807F03D0344A324B1A6016
:102D700046E0334A304B1A602D4B1B6A03F0700358
:102D8000102B02D0202B04D03AE02E4A2A4B1A6096
:102D900036E02A4A284B1A6032E0254B1B6A13F0B2
:102DA000807F03D0254A244B1A6012E0244A224B2C
:102DB0001A601F4B1B6A03F07003102B02D0202BEC
:102DC00004D006E01F4A1C4B1A6002E01B4A1A4B53
:102DD0001A60174B1B6B03F00303022B0DD1144B2E
:102DE000986A996A144BC0F30A401A6800FB0222E1
:102DF000C9B2B2FBF1F21A6002E0134A0E4B1A603C
:102E00000B4B1B6B03F07003702B07D10A4B1A6836
:102E10000E49A1FB020252081A607047044B196B5D
:102E2000054BC1F302111A68CA401A60704700BF0F
:102E300000060E40101A0E4054010720001BB70078
:102E400000093D0000127A00001C4E0EABAAAAAA8F
:102E5000094B1B6813B9094A074B1A60064B1B68DC
:102E60001A180749914204DB1046034A10601846BD
:102E700070474FF0FF307047148D072078AD072062
:102E8000FC7F08204FF0FF30704700BF4FF4005325
:102E90004B600020704700BF012070470020704742
:102EA00010B50B20044CA0470C20A0470D20A047D4
:102EB0000E20A04710BD00BF292C080010B584B01B
:102EC000274B9847274B9847274CA047274B9847B5
:102ED000A047274B9847274B9847274B9847274BA6
:102EE0009847274B9847274B98472748274B9847A1
:102EF000022300930023019302930393244825495E
:102F00004FF48072244CA047012802D023481F4B65
:102F100098470323009300230193029303932048CF
:102F200020494FF480721C4CA047012802D01E4853
:102F3000164B9847052300930023019302930393B4
:102F40001A481B494FF48072134CA047012802D045
:102F500018480E4B9847184B9847002004B010BDF6
:102F60007D27080019270800A12E0800E90F080096
:102F70002D0F0800190A080061100800A1020800BE
:102F8000490108006D030800109F08000141080076
:102F90003D0B08001C9F0800D51908002C9F080055
:102FA0004D0A0800549F0800609F0800110808009F
:102FB0007C9F0800909F0800DD1B08002DE9F04170
:102FC0008AB004460D4600F0A3F8DFF89480064668
:102FD00098F900300F46013304D02046294600F00E
:102FE000B7FB20B9304639460AB0BDE8F08120462B
:102FF000294600F0A9FB0022164B01F021F8002819
:10300000F0D015490023012214480893CDE9044566
:10301000CDE902450191009200F0C4FB98F900301F
:10302000CDE90601022B0AD0684600F0B9FB30B1A9
:10303000089B4BB9DDE906010AB0BDE8F08101F05B
:1030400031F821230360F3E701F02CF8089B0360BB
:10305000F0E700BF0000F03FB89F0800949E080012
:10306000580107202DE9F0478AB004460D4600F0CC
:10307000ABFADFF898A006469AF900300F46013304
:103080000FD02046294600F063FB50B14FF00008F6
:103090004FF0000942464B462046294600F0B2FF59
:1030A00020B9304639460AB0BDE8F08716499AF88B
:1030B000006001220023CDE90445CDE902450191DC
:1030C0000092089366B9CDE90689684600F068FB6E
:1030D00080B1089B9BB9DDE906010AB0BDE8F08725
:1030E0004046494642464B4600F044FE022ECDE99A
:1030F0000601EAD100F0D6FF21230360E9E700F0E2
:10310000D1FF089B0360E6E7C09F08005801072035
:103110002DE9F84F804F21F00046BE4204460D468F
:103120000EDD06F1404C0CF5801C5CEA000C40F012
:10313000BB80002940F37C8100200021BDE8F88F8E
:10314000764FBE4240F3A8800029C0F27681024645
:103150000B460020724900F02FFB0022714B00F05B
:10316000DFFC04460D4600F02FFA55A3D3E90023F7
:10317000894680462946204600F0D2FC52A3D3E976
:10318000002300F01BFB22462B4600F0C9FC50A395
:10319000D3E9002300F010FB22462B4600F0C0FCD0
:1031A0004DA3D3E9002300F009FB22462B4600F093
:1031B000B7FC4BA3D3E9002300F0FEFA22462B46CE
:1031C00000F0AEFC48A3D3E9002300F0F7FA224652
:1031D0002B4600F0A5FC46A3D3E9002382468B468C
:1031E0002046294600F09CFC43A3D3E9002300F0CD
:1031F000E3FA22462B4600F093FC41A3D3E90023D7
:1032000000F0DCFA22462B4600F08AFC3EA3D3E90C
:10321000002300F0D1FA22462B4600F081FC002268
:103220003F4B00F0CBFA02460B465046594600F0A1
:10323000A1FD42464B4600F073FC002682468B46B9
:1032400032464B463046494600F06AFC02460B4681
:103250002046294600F0B0FA324604460D464B4659
:103260004046494600F0AAFA02460B462046294647
:1032700000F080FD02460B465046594600F09EFA8B
:1032800002460B463046494600F098FA02460B4685
:1032900000F094FABDE8F88F234B9E4246DC1CA157
:1032A000D1E90001BDE8F88F02460B4600F084FA30
:1032B00002460B4600F05EFDBDE8F88FAFF30080DC
:1032C00009F7FD0DE13D023F88B20175E0EF493F8E
:1032D0003B8F68B52882A43F5544880E55C1C93F2D
:1032E0007D6FEB0312D6D43F555555555555C53F07
:1032F00082922EB1C5B8B33F59018D1B6C06E63FD3
:10330000C88A599CE52A00404B2D8A1C273A034065
:10331000182D4454FB21F93FFFFFEF3FFFFFDF3F34
:103320000000F03F0000E03F0000603C02460B461A
:1033300000F0F6FB88A3D3E9002306460F4600F011
:10334000EFFB87A3D3E9002300F038FA32463B466F
:1033500000F0E6FB84A3D3E9002300F02DFA324607
:103360003B4600F0DDFB82A3D3E9002300F026FA00
:1033700032463B4600F0D4FB7FA3D3E9002300F0A4
:103380001BFA32463B4600F0CBFB7DA3D3E900237A
:1033900000F014FA32463B4600F0C2FB7AA3D3E9B0
:1033A0000023804689463046394600F0B9FB78A3B1
:1033B000D3E9002300F000FA32463B4600F0B0FBB0
:1033C00075A3D3E9002300F0F9F932463B4600F03B
:1033D000A7FB73A3D3E9002300F0EEF932463B4686
:1033E00000F09EFB0022764B00F0E8F902460B4607
:1033F0004046494600F0BEFC02460B4620462946A0
:1034000000F08EFB02460B4667A1D1E9000100F0F7
:10341000D3F902460B462046294600F0CDF9024674
:103420000B4663A1D1E9000100F0C6F9BDE8F88FB1
:1034300061A1D1E90001BDE8F88F0022604B00F0E6
:10344000BDF900225F4B00F06BFB43A3D3E90023DF
:1034500004460D4600F064FB41A3D3E9002300F0CD
:10346000ADF922462B4600F05BFB3FA3D3E90023D6
:1034700000F0A2F922462B4600F052FB3CA3D3E910
:10348000002300F09BF922462B4600F049FB3AA3AB
:10349000D3E9002300F090F922462B4600F040FBD0
:1034A00037A3D3E9002300F089F922462B4600F028
:1034B00037FB804689462046294600F085F832A32E
:1034C000D3E9002306460F462046294600F028FB94
:1034D0002FA3D3E9002300F06FF922462B4600F01A
:1034E0001FFB2DA3D3E9002300F068F922462B46E9
:1034F00000F016FB2AA3D3E9002300F05DF9224671
:103500002B4600F00DFB00222D4B00F057F9024630
:103510000B464046494600F02DFC32463B4600F043
:10352000FFFA21A3D3E9002300F046F902460B4637
:103530003046394600F042F902460B4600F03EF9AB
:1035400002460B461CA1D1E9000100F035F9BDE8A7
:10355000F88F00BFAFF3008009F7FD0DE13D023F9A
:1035600088B20175E0EF493F3B8F68B52882A43FE0
:103570005544880E55C1C93F7D6FEB0312D6D43F29
:10358000555555555555C53F82922EB1C5B8B33FD7
:1035900059018D1B6C06E63FC88A599CE52A0040FC
:1035A0004B2D8A1C273A0340075C143326A6913C16
:1035B000182D4454FB21F93F182D4454FB21094098
:1035C0000000F03F0000E03F21F0004C2DE9F843FF
:1035D0004FEA1C5CDFF86C814FEA0C5CC445064680
:1035E0000F460B46024600F08F8000296FDD0F1555
:1035F00078D0A7F2FF37C3F31303F90743F480131E
:1036000060D4D10F4FF0000C01EB43037F10520048
:10361000654616204FF400116C189C424FEAD27692
:103620004FEA420202DC1B1B65188C44013806EB92
:1036300043034FEA5101EFD1804620264FF000416D
:1036400009E023D0D40F013E4FEA510104EB4303BC
:103650004FEA42021ED0AB4201EB0804F1DD04F058
:103660000049B9F1004F04EB010809D0A9465B1BE2
:10367000944288BF03F1FF33121B08444D46E1E733
:10368000B8F1000FF2DB05F10109F0E79442E6D949
:103690001D46D7E71A4304D0431C41D000F0010374
:1036A000184446084FEA6C031CF0010F03F17F53E6
:1036B00003F5001318BF46F0004603EB07513046F0
:1036C000BDE8F883D10F01EB4303520099E721F0E5
:1036D0000043034322D051BB0F46D30A153F520586
:1036E000002BFAD013F480111DD15B00D80201F138
:1036F0000101FAD5C1F10100C1F1200422FA04F45C
:1037000007448A40234374E702460B4600F008FA58
:1037100032463B4600F052F8BDE8F883BDE8F88336
:103720000CF1010CBEE7202401200021E6E702464F
:103730000B4600F041F802460B4600F01BFBBDE8CB
:10374000F88300BF0000F07F21F00041704700BF08
:1037500031F0004310B408D00F4AA3F5801494420E
:103760000AD804205DF8044B704700280CBF0220E3
:1037700003205DF8044B7047B3F5801F01D203208E
:10378000F7E7064A934201D00020F2E7D0F10100AA
:1037900038BF0020EDE700BFFFFFDF7F0000F07FB4
:1037A0000020704700200149704700BF0000F87FEB
:1037B00081F0004102E000BF83F0004330B54FEAE2
:1037C00041044FEA430594EA050F08BF90EA020F4F
:1037D0001FBF54EA000C55EA020C7FEA645C7FEAE2
:1037E000655C00F0E2804FEA5454D4EB5555B8BF05
:1037F0006D420CDD2C4480EA020281EA030382EA76
:10380000000083EA010180EA020281EA0303362D07
:1038100088BF30BD11F0004F4FEA01314FF4801CDA
:103820004CEA113102D0404261EB410113F0004FEC
:103830004FEA03334CEA133302D0524263EB4303A3
:1038400094EA050F00F0A780A4F10104D5F1200E41
:103850000DDB02FA0EFC22FA05F2801841F100019C
:1038600003FA0EF2801843FA05F359410EE0A5F170
:1038700020050EF1200E012A03FA0EFC28BF4CF0A1
:10388000020C43FA05F3C01851EBE37101F0004557
:1038900007D54FF0000EDCF1000C7EEB00006EEB64
:1038A0000101B1F5801F1BD3B1F5001F0CD34908EE
:1038B0005FEA30004FEA3C0C04F101044FEA445245
:1038C00012F5800F80F09A80BCF1004F08BF5FEACC
:1038D000500C50F1000041EB045141EA050130BDAC
:1038E0005FEA4C0C404141EB010111F4801FA4F14F
:1038F0000104E9D191F0000F04BF01460020B1FAA4
:1039000081F308BF2033A3F10B03B3F120020CDADB
:103910000C3208DD02F1140CC2F10C0201FA0CF0B9
:1039200021FA02F10CE002F11402D8BFC2F1200C1E
:1039300001FA02F120FA0CFCDCBF41EA0C019040D4
:10394000E41AA2BF01EB0451294330BD6FEA04041D
:103950001F3C1CDA0C340EDC04F11404C4F1200208
:1039600020FA04F001FA02F340EA030021FA04F31A
:1039700045EA030130BDC4F10C04C4F1200220FA71
:1039800002F001FA04F340EA0300294630BD21FAAF
:1039900004F0294630BD94F0000F83F4801306BF75
:1039A00081F480110134013D4EE77FEA645C18BF69
:1039B0007FEA655C29D094EA050F08BF90EA020F00
:1039C00005D054EA000C04BF1946104630BD91EAF8
:1039D000030F1EBF0021002030BD5FEA545C05D1FB
:1039E0004000494128BF41F0004130BD14F580043A
:1039F0003CBF01F5801130BD01F0004545F0FE41AE
:103A000041F470014FF0000030BD7FEA645C1ABFE2
:103A1000194610467FEA655C1CBF0B46024650EA19
:103A2000013406BF52EA033591EA030F41F4002145
:103A300030BD00BF90F0000F04BF0021704730B5CB
:103A40004FF4806404F132044FF000054FF00001A0
:103A500050E700BF90F0000F04BF0021704730B561
:103A60004FF4806404F1320410F0004548BF404236
:103A70004FF000013EE700BF42004FEAE2014FEA8B
:103A800031014FEA02701FBF12F07F4393F07F4F66
:103A900081F06051704792F0000F14BF93F07F4F98
:103AA000704730B54FF4607401F0004521F00041DB
:103AB00020E700BF50EA010208BF704730B54FF061
:103AC00000050AE050EA010208BF704730B511F066
:103AD000004502D5404261EB41014FF4806404F19E
:103AE00032045FEA915C3FF4DCAE4FF003025FEA20
:103AF000DC0C18BF03325FEADC0C18BF033202EBA8
:103B0000DC02C2F1200300FA03FC20FA02F001FA01
:103B100003FE40EA0E0021FA02F11444C1E600BFA0
:103B200070B54FF0FF0C4CF4E06C1CEA11541DBF53
:103B30001CEA135594EA0C0F95EA0C0F00F0DEF81E
:103B40002C4481EA030621EA4C5123EA4C5350EA03
:103B5000013518BF52EA033541F4801143F4801354
:103B600038D0A0FB02CE4FF00005E1FB02E506F0E5
:103B70000042E0FB03E54FF00006E1FB03569CF03A
:103B8000000F18BF4EF0010EA4F1FF04B6F5007F40
:103B900064F5407404D25FEA4E0E6D4146EB0606B2
:103BA00042EAC62141EA55514FEAC52040EA5E503B
:103BB0004FEACE2EB4F1FD0C88BFBCF5E06F1ED8E5
:103BC000BEF1004F08BF5FEA500E50F1000041EB1C
:103BD000045170BD06F0004646EA010140EA0200C9
:103BE00081EA0301B4EB5C04C2BFD4EB0C0541EAEB
:103BF000045170BD41F480114FF0000E013C00F300
:103C0000AB8014F1360FDEBF002001F0004170BD23
:103C1000C4F10004203C35DA0C341BDC04F114043C
:103C2000C4F1200500FA05F320FA04F001FA05F2C8
:103C300040EA020001F0004221F0004110EBD37095
:103C400021FA04F642EB06015EEA430E08BF20EAC1
:103C5000D37070BDC4F10C04C4F1200500FA04F364
:103C600020FA05F001FA04F240EA020001F00041F6
:103C700010EBD37041F100015EEA430E08BF20EA69
:103C8000D37070BDC4F1200500FA05F24EEA020EB1
:103C900020FA04F301FA05F243EA020321FA04F0E0
:103CA00001F0004121FA04F220EA020000EBD37097
:103CB0005EEA430E08BF20EAD37070BD94F0000F97
:103CC0000FD101F00046400041EB010111F4801FCB
:103CD00008BF013CF7D041EA060195F0000F18BF7C
:103CE000704703F00046520043EB030313F4801FB8
:103CF00008BF013DF7D043EA0603704794EA0C0F72
:103D00000CEA135518BF95EA0C0F0CD050EA410687
:103D100018BF52EA4306D1D181EA030101F0004104
:103D20004FF0000070BD50EA410606BF104619462C
:103D300052EA430619D094EA0C0F02D150EA013638
:103D400013D195EA0C0F05D152EA03361CBF104679
:103D500019460AD181EA030101F0004141F0FE4118
:103D600041F470014FF0000070BD41F0FE4141F49C
:103D7000780170BD70B54FF0FF0C4CF4E06C1CEA9C
:103D800011541DBF1CEA135594EA0C0F95EA0C0F51
:103D900000F0A7F8A4EB050481EA030E52EA03350C
:103DA0004FEA013100F088804FEA03334FF080552D
:103DB00045EA131343EA12634FEA022245EA11155A
:103DC00045EA10654FEA00260EF000419D4208BF0B
:103DD000964244F1FD0404F5407402D25B084FEAB8
:103DE0003202B61A65EB03055B084FEA32024FF464
:103DF00080104FF4002CB6EB020E75EB030E22BFC1
:103E0000B61A754640EA0C005B084FEA3202B6EB80
:103E1000020E75EB030E22BFB61A754640EA5C002F
:103E20005B084FEA3202B6EB020E75EB030E22BFBF
:103E3000B61A754640EA9C005B084FEA3202B6EBC0
:103E4000020E75EB030E22BFB61A754640EADC007F
:103E500055EA060E18D04FEA051545EA16754FEAE1
:103E600006164FEAC30343EA52734FEAC2025FEAFF
:103E70001C1CC0D111F4801F0BD141EA00014FF08E
:103E800000004FF0004CB6E711F4801F04BF01435F
:103E90000020B4F1FD0C88BFBCF5E06F3FF6AFAE7B
:103EA000B5EB030C04BFB6EB020C5FEA500C50F10B
:103EB000000041EB045170BD0EF0004E4EEA11318E
:103EC00014EB5C04C2BFD4EB0C0541EA045170BD95
:103ED00041F480114FF0000E013C90E645EA060ED9
:103EE0008DE60CEA135594EA0C0F08BF95EA0C0F07
:103EF0003FF43BAF94EA0C0F0AD150EA01347FF44F
:103F000034AF95EA0C0F7FF425AF104619462CE725
:103F100095EA0C0F06D152EA03353FF4FDAE104688
:103F2000194622E750EA410618BF52EA43067FF4D9
:103F3000C5AE50EA41047FF40DAF52EA43057FF469
:103F4000EBAE12E74FF0FF3C06E000BF4FF0010C74
:103F500002E000BF4FF0010C4DF804CD4FEA410CD8
:103F60007FEA6C5C4FEA430C18BF7FEA6C5C1BD0A5
:103F700001B050EA410C0CBF52EA430C91EA030F26
:103F800002BF90EA020F0020704710F1000F91EA83
:103F9000030F58BF994208BF90422CBFD8176FEA51
:103FA000E37040F0010070474FEA410C7FEA6C5C1F
:103FB00002D150EA013C07D14FEA430C7FEA6C5C26
:103FC000D6D152EA033CD3D05DF8040B704700BF52
:103FD0008446104662468C461946634600E000BFA0
:103FE00001B5FFF7B7FF002848BF10F1000F01BD72
:103FF0004DF808EDFFF7F4FF0CBF012000205DF83D
:1040000008FB00BF4DF808EDFFF7EAFF34BF0120C1
:1040100000205DF808FB00BF4DF808EDFFF7E0FF5A
:1040200094BF012000205DF808FB00BF4DF808EDAB
:10403000FFF7CEFF94BF012000205DF808FB00BF12
:104040004DF808EDFFF7C4FF34BF012000205DF8F4
:1040500008FB00BF4FEA410212F5001215D211D53C
:104060006FF47873B3EB625212D94FEAC12343F075
:10407000004343EA505311F0004F23FA02F018BFF7
:10408000404270474FF00000704750EA013005D1C0
:1040900011F0004008BF6FF0004070474FF0000083
:1040A000704700BF014B1868704700BF88050720A4
:1040B00070B50F4E0F4D761BB61007D0043D00248F
:1040C000013455F8043F9847A642F9D10A4E0B4DEA
:1040D00006F04CF8761BB61008D0043D00240134DD
:1040E00055F8043F9847A642F9D170BD70BD00BF96
:1040F00078A1080078A1080080A1080078A1080034
:104100000FB410B5074B82B004AC54F8042B1868F8
:1041100023468168019401F083FC02B0BDE81040A1
:1041200004B0704788050720844641EA000313F075
:10413000030349D1403A23D30B6803604B684360C3
:104140008B688360CB68C3600B6903614B69436113
:104150008B698361CB69C3610B6A03624B6A4362FB
:104160008B6A8362CB6AC3620B6B03634B6B4363E3
:104170008B6B8363CB6BC36340304031403ADBD2FF
:1041800030320BD30B6803604B6843608B688360ED
:10419000CB68C36010301031103AF3D20C3205D323
:1041A00051F8043B40F8043B043AF9D2043208D0F9
:1041B000D2071CBF11F8013B00F8013B01D30B886B
:1041C00003806046704700BF082A13D38B07B1D025
:1041D00010F00303AED0C3F10403D21ADB071CBFF7
:1041E00011F8013B00F8013BA4D331F8023B20F861
:1041F000023B9FE7043AD9D3013A11F8013B00F89A
:10420000013BF9D20B7803704B7843708B78837045
:1042100060467047F0B4840743D0541E002A3ED055
:10422000CDB2034603E0621E002C38D0144603F8DA
:10423000015B9A07F7D1032C2AD9CDB245EA0525AF
:104240000F2C45EA054515D9A4F110073F0903F1E4
:10425000100606EB07161A46156055609560D56086
:104260001032B242F8D104F00F040137032C03EBF3
:1042700007130DD91E462246043A032A46F8045B6A
:10428000FAD8221F22F003020432134404F003047C
:104290002CB1C9B21C4403F8011BA342FBD1F0BCF2
:1042A000704714460346C6E700290CBF02220022CD
:1042B0004FF4806300F000B82DE9F0413C4D044616
:1042C0002D68884616461F4615B1AB6B002B4FD0A4
:1042D000022E30D8002F2EDB2846214603F0D4FAD8
:1042E000A38900226260A2611A0628D423F0830306
:1042F0009BB2022EA3812DD0B8F1000F3CD0012E2D
:1043000013D09BB203F008002A4A80B2EA63C4F8D3
:104310000080C4F81080676178B113F0030F18BFF4
:104320000027A7600020BDE8F08143F001037A4236
:10433000A381A261E5E74FF0FF30BDE8F081284698
:10434000216903F001FCA389022E23F083039BB2B1
:10435000A381D1D1002004F1430243F002030025E0
:104360000121A381A560226022616161BDE8F08125
:10437000284603F0A5FAABE7002F08BF4FF480678B
:10438000384603F0DBFE804628B1A38943F0800362
:104390009BB2A381B3E74FF4806003F0CFFE804669
:1043A00018B9A3894FF0FF30D5E74FF48067ECE7E9
:1043B00088050720B57808000EB4F0B59CB021AC94
:1043C00054F8042B0E49064623464FF4027E6FF044
:1043D000004508684FF6FF7702A9029606960194F9
:1043E000ADF814E004950795ADF8167000F06CF880
:1043F000029B00221A701CB0BDE8F04003B0704769
:104400008805072020F0030110F00300C0F1000030
:1044100051F8043B00F1040C4FEACC0C6FF00002A1
:104420001CBF22FA0CF213434FF0010C4CEA0C2C87
:104430004CEA0C4CA3EB0C0222EA030212EACC1267
:1044400004BF51F8043B0430F4D013F0FF0F1FBF3A
:10445000013013F47F4F013013F47F0F18BF013088
:10446000704700BF40EA01039B0770B42AD1032ABA
:1044700028D90C460346214654F8045BA5F10136C1
:1044800026EA050616F0803F05D1043A032A43F8D0
:10449000045B2146EFD89AB10C78013A1C700133C5
:1044A0003CB16AB111F8014F013A03F8014B002CFD
:1044B000F7D12AB11A44002103F8011B9342FBD122
:1044C00070BC70470346E6E72DE9F04FC9B0109382
:1044D0000C9191460D9003F0BDFD00681590FFF71B
:1044E00091FF0C9C1890A3891E0603D52369002B0D
:1044F00001F0818038ACA44608942B940025002458
:10450000CDE91645002311932D932C931A931993FB
:104510000E93664699F80030002B00F0F880252BAA
:1045200000F0F58009F1010201E0252B04D0137899
:1045300014460132002BF8D1C9EB04057DB12C9B48
:104540002D9A01332A44072BC6F8009075602D92EE
:104550002C9300F3C28008360E9828440E902378DE
:10456000002B00F0C280002394F801801A468DF8D9
:104570008F300F93099304F101094FF0FF340A942F
:1045800009F10109A8F12003582B00F2C583DFE8E7
:1045900013F06A02C303C3037102C303C303C3035B
:1045A000C303C303C30314036603C3039D00C00016
:1045B000C30378027F027F027F027F027F027F02B5
:1045C0007F027F027F02C303C303C303C303C3038A
:1045D000C303C303C303C303C30390027103C30331
:1045E0007103C303C303C303C3036A03C303C30346
:1045F0007800C303C303C303C303C3035900C30346
:10460000C303AF02C303C303C303C303C303C3038F
:10461000C303C303C303C303370348037103710315
:104620007103FF024803C303C3030803C303C502A6
:104630007C002003A303C303D902C3035F00C303A9
:10464000C303DE00DDF824C04CF0100CCDF824C00C
:10465000099CA20600F15483099CE30600F1BD8584
:10466000DDF824C01CF0400F00F0B785DDF840C035
:104670000025BCF800400CF1040C0123CDF840C02B
:104680008CE0099D45F010050995DDF824C01CF06B
:10469000200340F02A83DDF824C01CF0100240F013
:1046A000A485DDF824C01CF0400300F09E85DDF8F1
:1046B00040C01346BCF800400CF1040C0025CDF8B6
:1046C00040C06BE00F9C109364420F94099D45F02D
:1046D0000405099599F8008052E70D980C992BAACA
:1046E00004F0C2FD40B938AE36E72D9B23B10D98DA
:1046F0000C992BAA04F0B8FD0C9C0E98A38913F01A
:10470000400F18BF4FF0FF3049B0BDE8F08F4C4666
:1047100025E799F8008009F10100B8F12A0F01F0AE
:104720000C81A8F13003092B98BF002101F26B80A6
:1047300010F8018B01EB810103EB4101A8F130037B
:10474000092BF5D941EAE1710A9181461AE7099DE1
:10475000A14CAF061A948DF88F2040F1D181DDF87D
:1047600040C00CF1070323F0070303F10804109481
:10477000D3E90045DDF824C01CF0010F00F062848D
:1047800054EA050000F05E8430234CF0020C8DF8F2
:1047900090308DF89180CDF824C002234FF0000AAC
:1047A0008DF88FA00A99002905DBDDF824C02CF0D4
:1047B000800CCDF824C054EA050040F0C5820A9967
:1047C000002940F0C182002B40F03884DDF824C07D
:1047D0001CF0010F00F0328448AF3023089D07F829
:1047E000413DEC1BDDF828C000256445A8BFA44668
:1047F000CDF82CC01495BAF1000F02D00B9D0135F5
:104800000B95099B13F00203129302D00B9D023506
:104810000B95DDF824C01CF0840CCDF84CC040F0A2
:1048200090820F9DDDF82CC0CCEB050BBBF1000F87
:1048300040F38782BBF1100F2D992C9ADFF8A0A1CD
:104840002CDD1B97304657461025CA460C9EA146C4
:104850000D9C06E0ABF1100BBBF1100F00F108004E
:1048600017DD01321031072A2D912C920760456027
:10487000F0DD204631462BAA04F0F6FC00287FF438
:104880003BAFABF1100BBBF1100F2D992C9A38A850
:10489000E7DC4C46D146BA461B9F064601320BEB7D
:1048A000010C072ACDF8B4C02C9286E8000C00F366
:1048B0001A849DF88FA00836BAF1000F0FD02C9BF8
:1048C0000CF1010C01330DF18F010122072BCDF802
:1048D000B4C02C9386E8060000F3A4830836129B2C
:1048E00073B12C9B0CF1020C013324A90222072B7B
:1048F000CDF8B4C02C9386E8060000F38783083611
:10490000139D802D00F0CA820A9DC4EB050ABAF1FE
:10491000000F3BDDBAF1100F2C9B304D2BDD0A94BC
:1049200032464FF0100B2E4661460D9C0C9D06E062
:10493000AAF1100ABAF1100F02F1080217DD0133D3
:104940001031072B2D912C9382E84008F0DD204692
:1049500029462BAA04F088FC00287FF4CDAEAAF1EA
:10496000100ABAF1100F2D992C9B38AAE7DC0A9C8B
:1049700035468C4616460133D444072BCDF8B4C0D7
:104980002C9386E8200400F335830836099DED0555
:1049900000F124822C9BA4440133072BCDF8B4C032
:1049A000376074602C9300F30F830836099C63070B
:1049B00049D50F9D0B982C1A002C44DD102C2C9BF4
:1049C000DFF81CA02BDD574610256246DDF830804D
:1049D000DDF834A00BE000BF04A00800D09F080061
:1049E00024A00800103C102C06F1080615DD013348
:1049F0001032072B2D922C9337607560F2DD5046F4
:104A000041462BAA04F030FC00287FF475AE103C20
:104A1000102C2D9A2C9B38AEE9DC9446BA46013313
:104A2000A444072BCDF8B4C02C93C6F800A0746042
:104A300009DD0D980C992BAA04F016FC00287FF4D0
:104A40005BAEDDF8B4C00E9C0B980F9DA842ACBFC6
:104A5000241864190E94BCF1000F40F0C1820023A9
:104A60002C9338AE56E599F80080002A7FF488AD83
:104A7000202285E5099D45F00105099599F80080FA
:104A80007EE5099D45F08005099599F8008077E558
:104A90000024A8F130030F94214619F8018B01EB93
:104AA000810103EB4101A8F13003092BF5D90F91E6
:104AB00068E5DDF824C08DF88F204CF0100CCDF89F
:104AC00024C0099CA50640F1B280109DE91D21F08B
:104AD0000701D1E900230831109114461D46002A30
:104AE00073F1000CC0F294839DF88FA0012359E666
:104AF000099DB64CAF068DF88F201A943FF52FAE66
:104B0000099DED0640F14384DDF840C00025DCF846
:104B100000400CF1040CCDF840C02BE6DDF824C0B9
:104B20008DF88F201CF0200F00F04084109C21682D
:104B30000E9CE5172B46109D224604351095C1E9C1
:104B40000023E7E4109C4FF0000A27688DF88FA03F
:104B5000251D002F00F0E9850A9C3846002CC0F284
:104B60009B855146224603F08DFD002800F01386F8
:104B70000A9CC01BA042B8BF0446109524EAE47505
:104B8000CDF828A0CDF850A00B959DF88FA032E667
:104B9000DDF824C04CF0400CCDF824C099F800801A
:104BA000EEE499F800804B46B8F16C0F00F07F847A
:104BB000099D45F010050995E2E4109C109D2468BC
:104BC0002B1D002C0F94FFF67DAD109399F80080FB
:104BD000D6E4109BDDF824C0109D7D4804351C6888
:104BE0004FF0780830234CF0020C10958DF890307F
:104BF000CDF824C000258DF891801A900223CDE5D0
:104C0000109B109D1A680124002304359A460B94CA
:104C10008DF8B82010958DF88F300A9314932EAF2D
:104C2000EFE5099C8DF88F20A5063FF54EAFDDF826
:104C300024C01CF0100F40F0DF82DDF824C01CF00F
:104C4000400F00F0D982DDF840C0BCF900400CF103
:104C5000040CE51722462B46CDF840C03FE799F8F3
:104C600000802B228CE4099D45F00805099599F8F0
:104C7000008085E4109D8DF88F20EB1D23F0070345
:104C800003F1080CCDF840C0D3E90045CDE9164545
:104C9000DDE91601FEF75CFD0128DDE9160140F0B3
:104CA0005C8300220023FFF7ADF9002840F0638504
:104CB0009DF88FA003250B95099D464F25F0800593
:104CC000454B0024099500250A94B8F1470FD8BF39
:104CD0001F46032414958EE5DDF824C04CF0200C0B
:104CE000CDF824C099F800804AE4109CE31D23F01D
:104CF000070303F108051095D3E9004500234DE5AE
:104D0000109DEB1D23F0070303F1080CD3E90045C8
:104D1000CDF840C0012341E58DF88F20B8F1000F98
:104D20003FF4E3AC00234FF0010C9A46CDF82CC0C1
:104D30008DF8B8808DF88F300A93149364462EAFA7
:104D40005FE5DDF8B4C0B7E5012B00F0EC80022B85
:104D50000DF1DF0318D1DDF868C0194604F00F002B
:104D600022091CF8000042EA05722B09087052EA79
:104D700003000F4614461D4601F1FF31EED1089D98
:104D8000CDE91E23EC1B2DE5E00840EA457004F058
:104D90000702E908303250EA010C1F461A70044637
:104DA0000D4603F1FF33EFD1099CCDE91C01E0076B
:104DB000394640F1C180302A00F0BE80089D1F4670
:104DC0003023EC1B01F8013C0CE500BFF09F08000C
:104DD00004A00800E49F0800E09F0800B8F1650FF8
:104DE00040F3AD80DDE9160100220023CDF81CC0A0
:104DF000FFF7FEF8DDF81CC0002800F026812C9B90
:104E0000AA4901330CF1010C0122072BCDF8B4C0E3
:104E10002C9386E8060000F3ED820836259B119C52
:104E2000A34203DB099DEC077FF5C0AD2C9B189CCA
:104E30000133159DA444072BCDF8B4C035607460D0
:104E40002C9300F33E830836119D6C1E002C7FF7D7
:104E5000ADAD102C2C9B964D40F3978110276246E8
:104E6000DDF83480DDF830A004E00836103C102C6A
:104E700040F38A8101331032072B2D922C9386E860
:104E8000A000F2DD404651462BAA04F0EDF90028BF
:104E90007FF432AC2D9A2C9B38AEE7E70F9D0B9830
:104EA000C0EB050ABAF1000F7FF72EADBAF1100F73
:104EB0002C9B7F4D2BDD129432464FF0100B2E466B
:104EC00061460D9C0C9D06E0AAF1100ABAF1100F84
:104ED00002F1080217DD01331031072B2D912C93BD
:104EE00082E84008F0DD204629462BAA04F0BCF9F0
:104EF00000287FF401ACAAF1100ABAF1100F2D9925
:104F00002C9B38AAE7DC129C35468C4616460133AA
:104F1000D444072BCDF8B4C02C9386E8200400F3CA
:104F20000F820836F0E4002D08BF0A2C80F038818B
:104F3000303448AF07F8414D089DEC1B52E4119CFA
:104F4000012C2C9C40F3D28101340CF1010301228D
:104F5000072C2D9337602C94726000F3D8810836AB
:104F6000159DDDF8608001343560189D9844072C4C
:104F7000CDF8B4802C94756000F3D5810836DDE956
:104F8000160100220023FFF733F8119D002840F09E
:104F9000B9806B1E013401379844072C2C94CDF84E
:104FA000B4803760736000F3E2800836DDF864C0D7
:104FB0000134199DC44427AB072CCDF8B4C02C9400
:104FC00086E828007FF7F1AC0D980C992BAA04F025
:104FD0004BF900287FF490ABDDF8B4C038AEE5E4BF
:104FE0000D980C992BAA04F03FF900283FF437AD37
:104FF000FFF782BB0D980C992BAA04F035F9002815
:105000007FF47AABDDF8B4C038AEBFE40D980C99EC
:105010002BAA04F029F900287FF46EABDDF8B4C0A8
:1050200038AE6DE40D980C992BAA04F01DF90028F8
:105030007FF462ABDDF8B4C038AE50E40A9C38AF00
:10504000FFF7D0BB0223FFF7A9BB259B002B40F342
:10505000DD81119C149DDDF844A0AC42A8BF2C4614
:10506000002CBA440BDD2C9BA4440133072BCDF854
:10507000B4C0376074602C9300F31E830836149D0F
:1050800024EAE4742C1B002C40F3D780102C2C9BBA
:10509000074D40F3A3810A974FF010082F46624650
:1050A0002546DDF834B00C9C09E000BF20A00800C4
:1050B000D09F08000836103D102D40F38B8101333E
:1050C0001032072B2D922C9386E88001F2DD584692
:1050D00021462BAA04F0C8F800287FF40DAB2D9AC6
:1050E0002C9B38AEE7E70D980C992BAA04F0BCF87E
:1050F00000287FF401AB9DF88FA0DDF8B4C038AE76
:10510000FFF7DABB6F1E002F7FF750AF102FAE4DA9
:1051100023DD43464FF0100ADDF83480DDF830B06F
:1051200004E0103F102F06F1080615DD013410339E
:10513000072C2D932C9486E82004F2DD4046594636
:105140002BAA04F091F800287FF4D6AA103F102F64
:105150002D9B2C9C38AEE9DC98460134B844072CD2
:10516000CDF8B4802C9486E8A0007FF71EAF0D9890
:105170000C992BAA04F078F800287FF4BDAADDF87A
:10518000B4802C9C38AE11E794460133A444072B1D
:10519000CDF8B4C02C93356074607FF706AC13E78C
:1051A0000DF1DF0B204629460A22002304F0A6FA5F
:1051B00030328BF80020204629460A22002304F0D2
:1051C0009DFA04460D4654EA050C5F460BF1FF3B81
:1051D000E8D1089DEC1BFFF705BB109D01232C684F
:1051E000043510950025FFF7D9BA109D2C680435B9
:1051F00010950025FFF7D2BA109D2C680435109544
:10520000E51722462B46002A73F1000CBFF66CAC62
:105210004FF02D0A644265EB45058DF88FA0012300
:10522000FFF7C0BA0D980C992BAA04F01DF80028BE
:105230007FF462AADDF8B4C038AE149D259C2F44DB
:10524000119DAC4242DB099DE9073FD41198C7EBA1
:105250000A05041BAC42B8BF2546002D0BDD2C9B74
:10526000AC440133072BCDF8B4C0376075602C9384
:1052700000F34C82083625EAE575641B002C7FF7A5
:1052800095AB102C2C9B504D7FF77FAF10276246BB
:10529000DDF83480DDF830A004E00836103C102C36
:1052A0007FF772AF01331032072B2D922C9386E8D3
:1052B000A000F2DD404651462BAA03F0D5FF00289E
:1052C0007FF41AAA2D9A2C9B38AEE7E7189D2C9BE9
:1052D000AC44159D01333560189D072BCDF8B4C043
:1052E00075602C9300F3F4810836AFE7099DEA0757
:1052F0003FF52AAE01340CF101080123072CCDF84B
:10530000B4802C94376073607FF74FAE2FE70D9811
:105310000C992BAA03F0A8FF00287FF4EDA92D9B80
:105320002C9C38AE1CE60D980C992BAA03F09CFF20
:1053300000287FF4E1A9DDF8B4802C9C38AE1EE68D
:105340000D980C992BAA03F08FFF00287FF4D4A9A5
:10535000DDF8B4C038AEFFF7D7BAFEF7F9F9002888
:1053600040F0BB80099C194F194B4FF0030C24F0FF
:10537000800409940A90CDF82CC01490B8F1470F1E
:10538000D8BF1F4664469DF88FA0FFF734BA099C2A
:10539000640640F15081DDF840C00025BCF80040B3
:1053A0000CF1040CCDF840C0FFF7E4B9DDF824C0DF
:1053B0001CF0100F00F04681109C0E9D23680434F1
:1053C00010941D60FFF7A6B8D09F0800EC9F08005E
:1053D000E89F08002C463D460A9F94460133A444AA
:1053E000072BCDF8B4C02C93356074603FF71AAF2B
:1053F000083622E70D980C992BAA03F035FF0028F8
:105400007FF47AA9DDF8B4C038AE07E52C9AB74925
:1054100001320CF1010C0120072ACDF8B4C02C9206
:105420003160706000F3F78008361C462CB9119D7E
:105430001DB9099DE8077FF5B9AA2C9B159D189900
:1054400001333560189D6144072B2D9175602C93B5
:1054500000F3DE8106F108026442002C40F30B8168
:10546000102CA34D40F34881A34610260C46DDF8CE
:105470003480DDF830A006E00832ABF1100BBBF150
:10548000100F40F3378101331034072B2D942C93E8
:1054900082E86000F0DD404651462BAA03F0E4FEAE
:1054A00000287FF429A92D9C2C9B38AAE5E7099CAC
:1054B00009F1010944F02004099493F80180FFF7F1
:1054C0005FB80D980C992BAA03F0CEFE00287FF44C
:1054D00013A9DDF8B4C038AEB6E40A9D28F0200A5E
:1054E000013500F0A580BAF1470F04D10A9D002DC7
:1054F00008BF01250A95DDF824C0DDE916234CF428
:10550000807C002BCDF848C0C0F29C81DDE91645B7
:10551000CDE920454FF0000BB8F1660F00F09B81FC
:10552000B8F1460F00F0A981BAF1450F0ABF0A9CF5
:105530000A9D651C022025A926AA29AB8DE8210019
:105540000392049302910D98DDE9202301F0DCF928
:10555000B8F1670F074602D0B8F1470F05D1DDF863
:1055600024C01CF0010F00F09C81BAF1460F07EB3C
:10557000050400F01C81DDE9200100220023FEF774
:1055800037FD002840F00581299B9C4206D9302137
:105590005A1C29921970299B9C42F9D8DB1BBAF13D
:1055A000470F119300F0ED80B8F1650F40F3F281E1
:1055B000B8F1660F00F06881259C1494119C149D2D
:1055C000AC4200F33281DDF824C01CF0010F40F042
:1055D000AD8125EAE5732C464FF06708BBF1000F5B
:1055E00040F0B280129D0B930995CDF828B09DF83C
:1055F0008FA0FFF700B90D98402102F0A7FD2060B1
:105600002061002800F0BF81DDF830C04023CCF8D5
:105610001430FEF76FBF0D980C992BAA03F024FEEF
:1056200000287FF469A8259CDDF8B4C038AEFDE6FB
:1056300006240A945FE7109D2C6804351095002518
:10564000FFF798B8DDF824C01CF0400F00F0878009
:10565000109C0E9D2368043410941D80FEF75ABFE1
:105660000D980C992BAA03F0FFFD00287FF444A8A5
:105670002D992C9B38AADDF844C00133119C8C4431
:10568000072BCDF8B4C02C93176054603FF79CAC47
:1056900002F10806FFF78AB9CDF828A0FEF7B2FE9E
:1056A00010950A9D20EAE07C0446CDF82CC01495A4
:1056B0009DF88FA0FFF79FB80D980C992BAA03F0C7
:1056C000D3FD00287FF418A8DDF8B4C038AED6E4C6
:1056D0000D980C992BAA03F0C7FD00287FF40CA8A5
:1056E000259CDDF8B4C038AEB0E500BF20A00800AE
:1056F000D09F080021465C4601332144072B2D91A1
:105700002C9315605460ABDC0832B4E70D980C990B
:105710002BAA03F0A9FD00287EF4EEAF259C119979
:10572000DDF8B4C00C1B38AEA5E50A9CBA46062CC1
:1057300028BF062424EAE47C0A9714971095CDF834
:105740002CC0974FFFF757B8129D4FF02D0A0995BF
:1057500000250B938DF88FA00A95FFF74FB8DDF861
:1057600040C00E9CDCF800300CF1040CCDF840C0B9
:105770001C60FEF7CFBE4FF02D0A8DF88FA0FFF70B
:1057800099BA259BDC1C19DB0A9C9C4216DB1493FE
:1057900014E7234602E724EAE47CCDF82CC00A9CF7
:1057A00010950A9014909DF88FA0FFF724B83B78CD
:1057B000302B00F0AD80259D2C44DCE6A8F10208DA
:1057C000591E00292591BABF49422D232B230929AF
:1057D0008DF89C808DF89D3065DC302330318DF85C
:1057E0009E308DF89F1028AB119D27AA119C9A1A04
:1057F000012D1992144440F3B7800134002524EAA6
:10580000E4731495EAE6002481460A94FEF7BABED2
:105810000D980C992BAA03F027FD00287EF46CAF9D
:10582000259C2D992C9B38AA16E6149C119D002CC2
:10583000D4BFC4F1020401242C4424EAE4734FF0E1
:105840006708CBE61799169801F100412090219145
:105850004FF02D0B60E60A9D032025A926AA29AB4F
:10586000019500900392049302910D98DDE92023A5
:1058700001F04AF80A9D074677E60A9C032025A90D
:1058800026AA29AB0194ECE7259D0A9C002D1495CE
:1058900063DDB4BB099DE80733D4149C24EAE473A8
:1058A0009CE6299B7AE60DF1AA023E4DCB1785FBBB
:1058B0000150C3EBA00000EB8003A1EB43010928DA
:1058C000134601F130021A70014603F1FF32ECDC9D
:1058D00000F130010DF1AB04C9B2944203F8011C90
:1058E0005AD90DF19D001A4601E012F8011BA2429F
:1058F00000F8011FF9D10DF5907CC3EB4C03F63B8A
:1059000072E70A9D6C1C149D2C4424EAE47365E63E
:10591000DDE9200100220023FEF76AFB00287FF466
:105920004AAFC5F1010525952C4424E6149D4FF09E
:1059300067086C1C24EAE47350E6109DDDF840C053
:105940002D680CF10403002D99F801800A9510933D
:105950008146BEF615AEFEF710BE7CB9099DE9077B
:105960000CD401231C4639E6DDF824C01CF00103E9
:105970007FF443AF149324EAE4732FE60A9DAC1C32
:1059800024EAE4732AE60D9D0C232B604FF0FF30D0
:10599000FEF7BABE259B13E70DF19E0324E700BF77
:1059A00018A00800676666664B6E2DE9F0479C04F8
:1059B0000E46804691462AD59368126802F1080A7D
:1059C0001BB31AE9A000BF0817D0043D002401E072
:1059D000A74210D0404655F8041F324602F006F8A0
:1059E000431C04F10104F3D10023C9F80830C9F8BD
:1059F0000430BDE8F087D9F80830A3EB8703C9F875
:105A000008300AF1080A002BDBD10020ECE702F095
:105A100067F90023C9F80830C9F80430BDE8F087F9
:105A20002DE9F04FB1B01C460291904608930690C4
:105A300018B1836B002B00F0E880029DAB899AB20D
:105A4000900407D46A6E43F4005322F40051AB81F2
:105A50009AB26966110740F1B780DDF808B0DBF84B
:105A60001030002B00F0B08002F01A020A2A00F079
:105A7000B78000230DF180090A93159314930993BD
:105A8000CDF84C904E4698F80030002B00F0C884BA
:105A9000252B00F0C58408F1010201E0252B04D07C
:105AA000137814460132002BF8D1C8EB040595B1E8
:105AB000149B159A01332A44072BC6F800807560A1
:105AC000159214937BDD002A40F0D5840998149236
:105AD00028444E4609902378002B00F0ED830021E6
