S014000052544F535F746573745F41412E73726563C8
S21408000008AD07207D250800792508007925080011
S21408001079250800792508007925080000000000E1
S2140800200000000000000000000000006D0B080043
S2140800307925080000000000E90B0800250C0800D8
S214080040792508007925080079250800792508000B
S21408005079250800792508007925080079250800FB
S214080060792508007925080000000000E923080023
S214080070FD230800112408002524080000000000BD
S21408008000000000450708007925080079250800C3
S21408009079250800792508007925080079250800BB
S2140800A07925080000000000792508007925080051
S2140800B0792508007925080079250800792508009B
S2140800C0792508007925080079250800792508008B
S2140800D0792508007925080079250800792508007B
S2140800E0792508007925080079250800792508006B
S2140800F07925080010B5054C237833B9044B13B19D
S2140801000448AFF300800123237010BDE0090720E0
S214080110000000005891080008B5064B1BB10648B9
S2140801200649AFF300800648036813B1054B03B1D0
S214080130984708BD0000000058910800E409072009
S214080140589108000000000070B50022114C124EAD
S214080150124DE36B13F4000F05D05AB93046002150
S214080160A847012206E0E36B13F4000FF1D1002A3A
S214080170EFD003E0E36B13F4000FEAD1064C2046F9
S2140801800021074B9847054620460021054B98470F
S214080190284670BD00120E4000000840E105080021
S2140801A0F1050800E90508002DE9F04182B0284865
S2140801B0284B9847284B9847ADF80600274FDFF896
S2140801C0D48021A5D5E900450DF106000A21244B67
S2140801D098474FF480063E6342F21070214B9847CA
S2140801E07E63214B984788FB0023C017C0EBE300CB
S2140801F01E4B984722462B461D4EB0471D4B984728
S2140802001D4B1860232806DC1C4B186800210A467C
S2140802100B461B4EB047194B18680021C8220B46E0
S214080220184EB04738B9184B186800210A460B46CE
S214080230164EB047C8E740F2DC500146144B9847C4
S214080240C2E700BFAFF300809A99999999194D4073
S214080250EC8D0800313208002116080000120E4006
S21408026075180800ED09080049010800912B0800D8
S214080270B12E080091310800FC090720000A072063
S2140802800111080091110800040A0720DD0F080074
S214080290710A0800310CC33070B53648364CA04792
S2140802A0364B4FF480021A61C3F8A0204FF40002C0
S2140802B05A61C3F8A0203248A04701200021032233
S2140802C0304B9847304B186020B100210A460B4641
S2140802D02E4CA0470120002103222A4B98472C4B7E
S2140802E0186020B100210A460B46284CA047294B27
S2140802F04FF080621A61C3F8A02027494FF4804364
S2140803000B61C1F8A0304FF400434B61C1F8A03030
S214080310224B02245C61C3F8A04008205861C3F849
S214080320A0004FF400725A61C3F8A0204FF4806210
S2140803305A61C3F8A020114A04255561C2F8A05096
S21408034001265E61C3F8A0605D61C3F8A050402531
S2140803505D61C3F8A05080234B61C1F8A03054619A
S214080360C2F8A0405061C2F8A0000D48024B98475A
S21408037070BD00BFFC8D08003132080000120E4028
S2140803800C8E0800850F0800000A0720DD0F0800FD
S214080390040A072000100E40000E0E4000140E40FF
S2140803A0248E08002DE9F04F87B04B4B9847ADF8E0
S2140803B0160040F272684746484D494C0DF1160043
S2140803C00A21484B984740463946474B9847474B7B
S2140803D01868002164220B46454EB047002875D0A1
S2140803E04FF08062434B5A634FF480436B63EF6B66
S2140803F0E66BE06BE16BE26B3F4BDB6B0193D4F88B
S2140804003CB0D4F83CA0D4F83C90D5F83CC0DFF813
S214080410E880D8F83CE0D8F83C800BF0010BCAF32B
S214080420800A0BEB4A0AC9F380190AEB8909CCF350
S214080430C01C09EBCC0CCEF3400E0CEB0E1EC8F31A
S214080440C0080EEB4818C7F3C037C6F3400607EBDC
S2140804504606C0F3C00006EB8000C1F3402100EB5F
S214080460C101C2F3802201EB0212C3F3800302EB40
S2140804704313C3EB080803A820494246204B984775
S214080480B8F1000F07DD4FEA8808C8F5CE670237CF
S21408049008F2726813E0B8F1000F08DA4FEA880825
S2140804A008F27267C8F5CE6808F1020807E040F25D
S2140804B0726001460C4B984740F2726847464FF008
S2140804C080620C4B1A634FF480432B6340F2DC5077
S2140804D00146054B984771E721160800000E0E40A6
S2140804E000140E4075180800710A0800040A072050
S2140804F09111080000100E4000120E40308E0800C1
S214080500E934080070B582B0054B984702AC24F869
S214080510020D3226034D20463146A847FBE700BFAA
S21408052021160800751808002DE9F0410C4690467B
S21408053060B9002A0EDD8F18094E0A4D306821462C
S2140805402B6898470134BC42F8D106E04FF0FF30DC
S214080550BDE8F0810020BDE8F0814046BDE8F081A6
S214080560008D0720F88C07202DE9F0410E46154629
S214080570013802280FD892B10024DFF83C800D4FCE
S214080580D8F80000315D3B68984700280ADB01343C
S214080590A542F5D10AE04FF0FF30BDE8F081002013
S2140805A0BDE8F0814FF0FF30BDE8F0812046BDE899
S2140805B0F08100BFFC8C0720008D072010B489014D
S2140805C04318022444504FF0FF319962196A5A6062
S2140805D05DF8044B704700BFC0F8C410704700BFF2
S2140805E08901052343507047890102234350704709
S2140805F000EB811108697047436913F0020F1DBFAD
S214080600C1F30801C161002001207047436913F057
S214080610010F05D08369C3F308030B6000207047F9
S214080620012070472DE9F04F83B005469046002A12
S21408063047D04E1C254F264CDFF8A8A0DFF894B00C
S21408064006F1FF3900230193224B9D4206D15846F6
S2140806504946214B98470028F9D119E01F4B9D427F
S21408066009D19946484601A9A0470028FAD1019B16
S21408067006F8013C17E01A4B9D4209D199464846B0
S21408068001A9A0470028FAD1019B06F8013C14E00E
S214080690554508D1504601A9A0470028FAD1019B24
S2140806A006F8013C09E0BD4207D1384601A9A04733
S2140806B00028FAD1019B06F8013C0136B8F101087A
S2140806C0BED1002003B0BDE8F08F00BF00400A404E
S2140806D00D06080000080E40310708000080094093
S2140806E000C0094000000A4010B4AC2303600A6842
S2140806F04B68B2FBF3F31B095C1E4FF6FE7294427E
S2140807000AD803628B68436040F20223C0F820319F
S21408071050230360002000E001205DF8044B70477A
S214080720436913F0020F1ABFC16100200120704709
S214080730436913F0010F1DBF83690B700020012069
S214080740704700BF00B583B011480DF107010122BC
S214080750104B984772B6BFF35F8F00220E4B1A7085
S2140807600E4B1B789DF807100D4AD1549B2B03D1CE
S21408077000220A4B1A7002E00133084A137001225D
S214080780054B1A70BFF35F8F62B603B05DF804FBC3
S214080790008009402506080036010720A40A07201D
S2140807A0080A0720F0B583B004460D4600230193D7
S2140807B01F4B984207D11F461E4E38462946B0475B
S2140807C00028FAD119E01C4B984209D11F461B4E47
S2140807D0384601A9B0470028FAD1019B2B7019E0CA
S2140807E0174B984209D11E46144C304601A9A0471B
S2140807F00028FAD1019B2B7018E0124B9C4209D1B5
S2140808001E460E4C304601A9A0470028FAD1019B87
S2140808102B700BE00C4B9C4208D11E46074C30460A
S21408082001A9A0470028FAD1019B2B7003B0F0BDA0
S21408083000080E4031070800008009400D06080031
S21408084000C0094000000A4000400A4070B50C4647
S214080850214B984207D11E46204D30462146A847D0
S2140808600028FAD12BE01E4B984207D11E461D4D94
S21408087030462146A8470028FAD122E01A4B98426B
S21408088007D11E46174D30462146A8470028FAD1FC
S21408089019E0164B984207D11E46124D304621469F
S2140808A0A8470028FAD110E0114B98420FD11E46EF
S2140808B00C4D30462146A8470028FAD109E0012009
S2140808C070BD012070BD012070BD012070BD0020E4
S2140808D070BD012070BD00BF00080E40210708004B
S2140808E000800940F905080000C0094000000A40D9
S2140808F000400A4030B585B00820194DA847194C65
S214080900194B1C60194A1A4B1A601A4A1A4B1A6075
S2140809101A4B01934FF4E13302934FF400630393A9
S2140809200820A847204601A9154B9847154D2B685F
S21408093098680021144CA0472B6858680021A047E7
S2140809401248134CA0471348A04713481349A0471A
S21408095013481449144AA0471448A04705B030BDA8
S2140809602125080000080E40008D07204D080800C5
S214080970FC8C0720A5070800F88C072000BD010599
S214080980E906080068050720D9330800408E0800E5
S21408099031320800508E0800648E08006C8E0800FD
S2140809A07C8E0800948E0800A08E0800AC8E080086
S2140809B010B51B20084B9847084C204600210A46CD
S2140809C0074B984720460021064B984720460021AB
S2140809D0054B984710BD00BF2125080000000840B9
S2140809E0BD050800D9050800E9050800F8B504465D
S2140809F009480021094B98472A2707FB04F7064EA3
S214080A000025074C30462946A047B842FAD3024884
S214080A100021044B9847F8BD00000840E10508008F
S214080A20F1050800E9050800044B20221A61C3F8FE
S214080A30A02040221A61C3F8A020704700120E407A
S214080A4038B5034C20252563024B9847656338BDA7
S214080A5000120E40ED09080038B5034C4025256302
S214080A60024B9847656338BD00120E40ED09080032
S214080A7010B50C46044B98472046044B984741F25D
S214080A808240034B984710BD410A0800590A0800DF
S214080A90ED09080000F1080343604FF6FF72028173
S214080AA0C360036100230360704700BF002303612F
S214080AB0704700BF43685A684A6042688A605A6846
S214080AC091605960416008610368013303607047AC
S214080AD010B40C884FF6FF739C4201D103690CE0F2
S214080AE000F10803C268128892B2944205D35B6884
S214080AF05A68128892B29442F9D25A684A6091604B
S214080B008B60596008610368013303605DF8044B25
S214080B10704700BF436882689A60836842685A6074
S214080B2003695A68824204BF82685A6000220261DA
S214080B301A68013A1A601868704700BF03480068C8
S214080B40006880F3088862B600DF00BF08ED00E0A2
S214080B504FF0807340F8043C40F8081C002340F827
S214080B600C3C40F8202C4038704700BF064B1968EC
S214080B700868B0E8F00F80F309884FF0000080F3AB
S214080B8011884EF00D0E7047D08B07204FF080521C
S214080B90014B1A60704700BF04ED00E0EFF31180C8
S214080BA04FF0A00181F311887047002008B5034B69
S214080BB09847034B1A6801321A6008BD9D0B080057
S214080BC02C01072080F31188704700BF08B5044A37
S214080BD01368013B136013B90020024B984708BD01
S214080BE02C010720C50B0800EFF309800C4B1A6888
S214080BF020E9F00F10602DE908404FF0A00080F3C0
S214080C00118800F0C5FE4FF0000080F31188BDE89B
S214080C10084019680868B0E8F00F80F3098870473C
S214080C20D08B072008B54FF08052054B1A60054B4D
S214080C309847054B98470020044B984708BD00BFC7
S214080C4004ED00E09D0B080041160800C50B0800DF
S214080C50034A044B1A600722043B1A60704700BF19
S214080C601F48010014E000E010B5094B1A6842F46A
S214080C7070021A601A6842F070421A60054B98476C
S214080C800024054B1C60054B9847204610BD00BF46
S214080C9020ED00E0510C08002C0107203D0B080051
S214080CA030B4134A1368834201D21A46FAE711464B
S214080CB054681519854203D1686804445460104680
S214080CC042688418A3420CD10A4C24689C4206D079
S214080CD05B681A4442600B681B68036002E00360A6
S214080CE000E00360814218BF086030BC704700BF50
S214080CF0AC8A0720A88A072038B50446284B9847A8
S214080D00284B1B689BB9284A284B13600021516062
S214080D1047F6F0729818234D286047F6F47559512F
S214080D2099505A601860224B1A68103A1A60002CBC
S214080D302DD004F1100212F0070F1CBF22F0070294
S214080D400832511E47F6FE73994222D816490C6897
S214080D5063689A4204D9236813B121461C46F7E70C
S214080D60104B1B689C4216D00D68103523680B6024
S214080D7063689B1A202B04D9A018436062600D4B49
S214080D8098470B4B1A686168521A1A6004E00025E7
S214080D9002E0002500E00025074B9847284638BDA6
S214080DA011160800A88A0720AC8A0720A80A072078
S214080DB030010720A10C08006D17080010B504467E
S214080DC068B1074B9847074B196854F80C2C0A4427
S214080DD01A60A4F11000044B9847044B984710BDBE
S214080DE01116080030010720A10C08006D1708002E
S214080DF010B50446036C3BB903681BBB4068134B2D
S214080E009847002363601DE06AB980681A46104B4D
S214080E109847A268236C1344A3606268934211D370
S214080E202368A3600EE0C0681A46094B9847226CF0
S214080E305242E3681344E36021688B4202D2636837
S214080E401A44E260A36B0133A36310BDB91C080003
S214080E505932080038B5034605685DB1026CC468A7
S214080E601444C4604068844228BFDD600846D968D8
S214080E70014B984738BD00BF59320800F8B50446FC
S214080E801D4B9847A36C002B12DD636A83B104F1EF
S214080E9024061A4D1A4F01E0636A4BB13046A8473C
S214080EA000B1B847A36C013BA364A36C002BF3DC2A
S214080EB04FF0FF33A364134B98470F4B9847636C68
S214080EC0002B12DD236983B104F110060B4D0C4F7D
S214080ED001E023694BB13046A84700B1B847636CB8
S214080EE0013B6364636C002BF3DC4FF0FF336364F1
S214080EF0044B9847F8BD00BFAD0B0800CD1A080094
S214080F00051C0800CD0B080038B50D46044618B970
S214080F10164B984700BFFDE7154B98472368226C89
S214080F20E06B00FB02F0191861600021A163A36062
S214080F30821A1344E3604FF0FF336364A36455B921
S214080F4023697BB104F110000A4B9847012809D1A0
S214080F50094B984706E004F11000084DA84704F12D
S214080F602400A847064B9847012038BD9D0B08006B
S214080F70AD0B0800CD1A08008D0B0800950A08006E
S214080F80CD0B0800F8B50D461746064688B1502022
S214080F900E4B9847044660B105FB06F001300B4B34
S214080FA09847206040B92046094B984701E000BFA3
S214080FB0FDE7084B9847FAE7E663256420460121D3
S214080FC0054B984784F84D702046F8BDF90C080084
S214080FD0BD0D08009D0B0800090F08002DE9F04F0D
S214080FE085B08A469B46ADF80620044618B9384BA5
S214080FF0984700BFFDE709B9036C1BB90027354EB3
S214081000354D03E0324B984700BFFDE7B047A26B6B
S214081010E36B9A4212D2204651465A462F4B9847BF
S214081020636A3BB104F124002D4B9847012801D18F
S2140810302C4B9847284B9847012046E0BDF80630C9
S2140810401BB9254B984700203FE01FB902A8264B3E
S21408105098470127A847254B9847B047636CB3F1D4
S214081060FF3F04BF00236364A36CB3F1FF3F04BFD4
S2140810700023A364A84702A80DF106011C4B984755
S214081080E8B9B047D4F83890D4F83C80A847C145AA
S2140810900FD104F11000BDF80610164B98472046ED
S2140810A0154B9847154B98470028AFD10D4B9847D6
S2140810B0ACE72046104B9847104B9847A6E72046C3
S2140810C00D4B98470D4B9847002005B0BDE8F08FAC
S2140810D09D0B0800AD0B0800CD0B0800F10D0800AD
S2140810E0CD1A08008D0B0800511B080011160800C1
S2140810F0791B0800211A08007D0E08006D170800E5
S2140811002DE9F0410E4615469846044618B91C4B7C
S214081110984700BFFDE729B9036C1BB1184B9847E1
S21408112000BFFDE7164B98470746A26BE36B9A424B
S21408113018D2204631464246124B9847A36CB3F164
S214081140FF3F0AD1636A7BB104F124000E4B98472F
S21408115060B16DB101242C600BE0A36C0133A3646D
S214081160012406E0002404E0012402E0012400E053
S21408117001243846054B98472046BDE8F08100BF55
S2140811809D0B0800F10D0800CD1A0800C50B0800D5
S2140811902DE9F04F85B089469A46ADF806200446F4
S2140811A018B9464B984700BFFDE709B9036C2BB939
S2140811B00027434EDFF838B1424D03E03F4B9847CF
S2140811C000BFFDE7B047A36B002B28D0E568204694
S2140811D049463D4B9847BAF1000F12D1A36B013B25
S2140811E0A363236813B9394B98476060236993B1A2
S2140811F004F11000364B984701280CD1354B984718
S21408120009E0E560636A33B104F12400304B98477F
S21408121008B1304B98472B4B984701204BE0BDF858
S21408122006301BB9274B9847002044E017B902A898
S214081230D8470127A847284B9847B047636CB3F1AF
S214081240FF3F04BF00236364A36CB3F1FF3F04BFF2
S2140812500023A364A84702A80DF106011F4B984770
S21408126018BBB047D4F83880A847B8F1000F16D195
S214081270236823B9B0476068194B9847A84704F114
S2140812802400BDF80610174B98472046164B98477B
S214081290164B9847002895D10E4B984792E720465C
S2140812A0114B9847114B98478CE720460E4B9847AA
S2140812B00E4B9847002005B0BDE8F08F9D0B080040
S2140812C0AD0B0800CD0B0800550E0800111C0800D1
S2140812D0CD1A08008D0B080011160800791B0800A7
S2140812E03D1C0800211A08007D0E08006D1708002E
S2140812F0511B080038B504460D460D4B9847636CDD
S214081300B3F1FF3F04BF00236364A36CB3F1FF3F50
S21408131004BF0023A364074B9847A36B23B904F1C3
S21408132024002946044B98472046044B984738BD66
S214081330AD0B0800CD0B0800851A08007D0E0800C6
S21408134010B504460F4B1B6898800F4B1B889BB242
S214081350984207D20D4B18680A4B196804310C4B93
S214081360984710BD0B4B1868064B19680431084B94
S2140813709847094B1B889BB29C423CBF064B1C8077
S21408138010BD00BFD08B0720EC8B0720F08B072002
S214081390D10A0800CC8A0720340107202DE9F84F27
S2140813A00E4617469A460A9DDDF83080814618B9DB
S2140813B0624B984700BFFDE7092D03D95F4B984756
S2140813C000BFFDE750205E4B98470446002800F013
S2140813D0B180B8F1000F40F0A980B800584B984784
S2140813E0206318B92046574B9847A3E0A521BA00B2
S2140813F0554B984707F18047013F236B03EB87035C
S21408140023F0070B04F13400314610224F4B98475F
S214081410002384F84330092D34BF2E460926E66299
S214081420E664271D3846DFF87081C04704F11800C7
S214081430C0472461C6F10A062683646258464946B0
S2140814405246434B9847206010F0070F03D03B4B9B
S214081450984700BFFDE70B9B03B11C603D4B9847C0
S2140814603D4B1A6801321A603C4B1B682BBB3B4B42
S2140814701C60394B1B68012B29D1394E06F1C80967
S214081480DFF8E0803046C04714364E45FAD1DFF81C
S2140814900C914846334EB047DFF804814046B047C3
S2140814A03148B0473148B0473148B047314BC3F8A8
S2140814B00090314BC3F8008009E0304B1B6833B905
S2140814C0264B1B68DB6A9D4224BF244B1C60E36ADC
S2140814D02B4A1268934284BF294A1360294A116826
S2140814E0616401311160284A1268934284BF264A13
S2140814F0136003EB83031A4800EB83003946234B3B
S2140815009847234B98471D4B1B684BB1134B1B68DA
S214081510DB6A9D4207D91F4B98470120BDE8F88F24
S2140815200120BDE8F88F0120BDE8F88FC0F83080AC
S21408153040465BE74FF0FF30BDE8F88F9D0B08008C
S214081540F90C0800BD0D080045330800953508005D
S214081550510B0800AD0B0800108C0720D08B072015
S214081560048B0720950A0800D48B0720D88A072002
S214081570B88A0720CC8A0720F08B0720D08A072055
S214081580148C0720F48B0720008B0720B50A080068
S214081590CD0B08008D0B0800AD0A0800F88B072055
S2140815A0EC8A072010B584B00023009301930293B9
S2140815B003930F480F494FF480720F4CA047012839
S2140815C00ED10E4B984701280AD10D4B9847012299
S2140815D00C4B1A6000220C4B1A800C4B984704E000
S2140815E018B9074B984700BFFDE704B010BD00BF09
S2140815F00D190800CC8E08009D130800B51D0800BC
S2140816009D0B0800D08A0720EC8B0720690C080081
S214081610024B1A6801321A60704700BFCC8B07204D
S21408162010B5044B9847044B1C88A4B2034B984744
S214081630204610BDAD0B0800EC8B0720CD0B08002C
S2140816402DE9F0413D4B1B68002B71D13C4B1A88A5
S214081650013292B21A801B889BB203BB394B1B68B7
S2140816601B681BB1384B984700BFFDE7354B196818
S214081670364A106818601160354A116801311160E1
S2140816801B681B6823B94FF6FF72324B1A8006E0B8
S2140816902C4B1B68DB68DB689A882E4B1A80284B15
S2140816A01A8892B22B4B1B889BB29A4244D3254B7E
S2140816B01B681B6853B1234B1B68DB68DC68A38870
S2140816C01F4A128892B2934214D90FE04FF6FF725F
S2140816D0204B1A80BDE8F0811A4B1B68DB68DC6873
S2140816E0A388174A128892B2934207D9194A1380D8
S2140816F0BDE8F081184E194FDFF86C80251D284686
S214081700B047A36A13B104F11800B047E36A3A6811
S214081710934288BF3B6003EB830008EB80002946B2
S2140817200F4B9847074B1B681B68002BD4D1CDE797
S2140817300C4B1A6801321A60BDE8F081CC8B072082
S214081740EC8B0720CC8A07209D0B0800F08B07201F
S214081750E88B072034010720150B0800008B0720AC
S214081760B50A0800B48A0720048B07202DE9F84339
S214081770314B1B681BB9314B984700BFFDE7304B10
S21408178098472D4B1A68013A1A601B68002B48D1F7
S2140817902C4B1B68002B46D00025DFF8D4802A4F38
S2140817A02A4E1DE0D8F80C30DC6804F11800B8475B
S2140817B004F104094846B847E36A3268934288BF8A
S2140817C0336003EB8303224800EB83004946214B32
S2140817D09847214B1B68E26ADB6A9A4228BF0125B4
S2140817E0D8F80030002BDDD11C4B1B6863B11B4BAF
S2140817F01B687BB11A4D194CA8472368013B236028
S2140818002368002BF8D105E0012D03D0154B1B6883
S214081810012B0AD10022134B1A60134B9847012458
S21408182004E0002402E0002400E000240F4B984760
S2140818302046BDE8F88300BFCC8B07209D0B080028
S214081840AD0B0800108C0720150B0800008B07202E
S214081850048B0720B50A0800D08B0720B48A072017
S214081860411608000C8C07208D0B0800CD0B0800CD
S214081870D48B072038B50C46054618B91B4B984735
S21408188000BFFDE719B9194B984700BFFDE7184B8D
S21408189098472B881C44A4B2164A128892B29342E0
S2140818A008D9A3421ED9134B1B889BB22C809C4296
S2140818B010D907E0A34213D80E4B1B889BB29C4254
S2140818C00ED80FE00C4B186804300C4B984720468F
S2140818D00B4B98470B4B984730B90B4B984738BD7E
S2140818E02C80EFE72C80F5E738BD00BF9D0B08007D
S2140818F011160800EC8B0720D08B0720150B080064
S214081900411308006D1708008D0B080080B5154DAB
S214081910154EDFF878801CE0144B9847144B1C686B
S214081920144B9847ACB1144B9847114BDB68DC68EE
S214081930201D124B9847124B1A68013A1A602B68FA
S214081940013B2B600F4B9847206B0F4FB84720463C
S214081950B8472B68002BDFD13368012BF9D9C0476D
S214081960F7E700BFD48A0720048B07201116080063
S214081970D88A07206D170800AD0B0800150B08005D
S214081980108C0720CD0B0800BD0D08008D0B080035
S21408199008B51D4B1B685BB91C4B1B6803EB830320
S2140819A09B001B4AD358CBB9184B1B6853B905E0A4
S2140819B00122184B1A6008BD1A682AB9164B9847B0
S2140819C000BFFDE7114B12491A68013A1A601A68F7
S2140819D002EB820251F82220002AEDD00B4B1B683E
S2140819E003EB83030A4A02EB83035A6852685A6079
S2140819F003F108018A4204BF52685A605B68DA68D5
S214081A00064B1A6008BD00BFCC8B0720008B07204A
S214081A10048B07200C8C07209D0B0800D08B072012
S214081A2038B50C4618B90F4B984700BFFDE70E4D62
S214081A30296818310D4B9847286804300C4B98478E
S214081A404FF6FF739C4205D129680A4804310A4BB1
S214081A50984738BD094B1888204480B2084B9847E9
S214081A6038BD00BF9D0B0800D08B0720D10A0800A0
S214081A70150B0800B88A0720B50A0800EC8B072063
S214081A804113080038B50D4618B90A4B984700BFE9
S214081A90FDE7094C21681831084B98472068043040
S214081AA0074B9847074B1888284480B2064B984738
S214081AB038BD00BF9D0B0800D08B0720B50A08006C
S214081AC0150B0800EC8B07204113080038B5C368CF
S214081AD0DC681CB9164B984700BFFDE704F11805EB
S214081AE02846144B9847144B1B689BB9251D284657
S214081AF0104B9847E36A114A1268934284BF0F4A0C
S214081B00136003EB83030E4800EB830029460D4B56
S214081B10984703E00C4829460A4B98470B4B1B6826
S214081B20E06ADB6A984234BF0020012038BD00BF57
S214081B309D0B0800150B0800CC8B0720008B072090
S214081B40048B0720B50A0800D48B0720D08B072003
S214081B5008B518B9054B984700BFFDE7044A126850
S214081B600260044A1288828008BD00BF9D0B0800E8
S214081B70E88B0720EC8B072038B50D46044618B9C5
S214081B801A4B984700BFFDE719B9184B984700BF8E
S214081B90FDE7174B98472B884FF6FF7293421CD0E9
S214081BA0144A116822688A4205D0134A128892B2EB
S214081BB0A188914213D9104A1188A288891A89B235
S214081BC08B420ED90C49098889B2521A13442B80C5
S214081BD020460A4B9847002404E0002402E001242B
S214081BE000E00124064B9847204638BD9D0B0800A8
S214081BF0AD0B0800E88B0720EC8B0720511B08006C
S214081C00CD0B08000122014B1A6070470C8C072088
S214081C10014B1868704700BFD08B0720054B1B6820
S214081C2033B1054B1B68002B14BF022001207047F8
S214081C3000207047D08A0720CC8B072038B504468A
S214081C4000282ED0C36A174A1268D26A934228D24E
S214081C50144A1268D26AC2F10A02028303EB8303AB
S214081C60114A02EB830342699A4216D1051D28469B
S214081C700E4B98470B4B1B68DB6AE3620C4A1268EC
S214081C80934284BF0A4A136003EB8303064800EBBB
S214081C9083002946074B984738BD024B1B68DB6A0A
S214081CA0C36238BDD08B0720048B0720150B0800AD
S214081CB0008B0720B50A080038B50446D0B1C26ABA
S214081CC0C36C9A4216D0051D28460B4B9847E36C02
S214081CD0E362C3F10A022283084A1268934284BF69
S214081CE0064A136003EB8303054800EB8300294686
S214081CF0044B984738BD00BF150B0800008B07201B
S214081D00048B0720B50A080010B5044681802061B8
S214081D1091420BD8D31A018B9BB2994211D90B4B1F
S214081D201868211D0A4B9847002010BD9A4201D218
S214081D30994208D2074B1868211D054B9847002082
S214081D4010BD012010BD012010BD00BF4C8C07201F
S214081D50D10A0800188C072070B50D4B98470D4B14
S214081D601B688BB90C4D28460C4EB0470C4C2046C9
S214081D70B0470C4B1D600C4B1C6005200C21002244
S214081D800A4B9847034B1860094B984770BD00BF2D
S214081D90AD0B0800488C07201C8C0720950A080005
S214081DA0308C0720188C07204C8C0720850F0800DD
S214081DB0CD0B080010B584B00B4B98470B4B1B682F
S214081DC063B1092300930023019302930393084801
S214081DD008494FF40072084CA04718B9074B9847B3
S214081DE000BFFDE704B010BD591D0800488C072049
S214081DF0151F0800D48E08009D1308009D0B0800C8
S214081E0010B584B0104C2468D4B10191ADF8082000
S214081E10039073B90D4B984701280B4B186801A916
S214081E2007BFBDF81820002300221346084CA04719
S214081E3007E0204601A91A460023064CA04700E002
S214081E40002004B010BD00BF488C07201D1C0800E9
S214081E50DD0F0800011108002DE9F04782B0814621
S214081E60244B98478046244B1B88834237D9234EF9
S214081E70234F27E0DA68B2F800A01FFA8AFADB6870
S214081E80DC68251D2846B847636A20469847E369F4
S214081E90012B17D1238B53449BB2534506D9A380F5
S214081EA0246130682946174B98470BE000230093B7
S214081EB0204619465246144CA04718B9134B984763
S214081EC000BFFDE733681A68002AD3D1104A1168A4
S214081ED00A48016013600123C9F8003002E00023B5
S214081EE0C9F80030044BA3F80080404602B0BDE8AD
S214081EF0F08700BF21160800448C0720188C07209E
S214081F00150B0800D10A0800011E08009D0B0800E2
S214081F104C8C07202DE9F04387B0514DDFF87081CF
S214081F20504B1B681A68002A00F09080DB681E88F1
S214081F30B6B24D4B984703A84C4B98470746039BA9
S214081F40002B32D1864225D8494B9847454B1B680B
S214081F50DB68DC68201DC047E369012B15D1218B9F
S214081F603144204689B23A463346424FB84701289C
S214081F700BD1002300932046194632463E4EB04702
S214081F8018B93E4B984700BFFDE7636A2046984756
S214081F900DE00026F11B286889B2394B9847344B68
S214081FA0984720B9374B984701E0314B984702A825
S214081FB02E4B98470746344EDFF8B8903EE0059C0F
S214081FC01CB1616909B1201DC0470399022923D0B5
S214081FD0032930D0002931D1BDF81030218B19449F
S214081FE0204689B23A46C847012827D1636A204660
S214081FF09847E369012B21D1228BBDF810301A448B
S214082000002300932046194692B21B4CA047A8B955
S2140820101A4B984700BFFDE7BDF8103023831BB95D
S214082020164B984700BFFDE7F918204689B23A468E
S2140820303B46C84702E02046144B9847286803A941
S21408204000221346B0470028B9D169E7064B9847DF
S21408205003A8064B98470746039B002B99D0A4E78E
S214082060488C0720188C072011160800591E0800EF
S2140820706D170800091D0800011E08009D0B0800C2
S214082080F51208008D0B080091110800BD0D080018
S214082090150B080010B50E480E4B984700203E2139
S2140820A00D4B98470D4CA0470028FCD00C4B984782
S2140820B00C4A0D4B9A620D4CA0470028FCD0102005
S2140820C00B4B98470B4B98470148024B984710BD57
S2140820D000BD0105A50007209D240800F12408007E
S2140820E001250800013F0D2000060E4011250800B6
S2140820F0392408002D26080010B54FF40042164B68
S2140821005A600B20154CA0470C20A0470D20A0476E
S2140821100E20A0473B204FF06051114CA047552099
S2140821204FF06051A04756204FF06051A0476820F6
S2140821300C49A0475C200C49A0470C484FF4407156
S2140821400B4A0C4B98472B204FF00061A0472A20DB
S2140821504FF00061A04710BD501A0E402125080018
S2140821601D2208007900002801000028000E0E40F5
S21408217001000008F12208004264B1F1805F16D021
S21408218004D8C1B1B1F1006F0AD013E0B1F1405FD5
S21408219011D0B1F1605F0ED0B1F1205F0AD170475F
S2140821A0036F016F0B4023EA0203036702E0036F25
S2140821B01343036742607047416412F0010F14BF6F
S2140821C04166016612F00A0F14BF0162416212F0FE
S2140821D0020F02D0C0F8801004E012F0080F18BFF3
S2140821E0C0F8841041610160704700BF10B44164B4
S2140821F0019C0CB1416600E001660BB1016500E088
S21408220041650AB1016300E04163016101605DF860
S214082210044B7047C06C7047806C704770B582B0CE
S2140822200D46440904F5001404F20774660201F02A
S214082230F044B4F1205F30D006D8B4F1006F0AD06D
S214082240B4F1805F18D049E0B4F1405F30D0B4F103
S214082250605F2DD042E000F01F0001248440304625
S2140822604FF0006122461F4B984715F0010F14BF28
S21408227074663466012032E000F01F0001248440B2
S21408228030464FF080512246164B984715F0010FFE
S21408229014BF74663466012021E000F01F01012493
S2140822A0304604FA01F12A460F4B9847204616E0B6
S2140822B000F01F01012405F0605205EA04030093AC
S2140822C0304604FA01F1B2F1605F14BF0022012221
S2140822D0C5F38003054DA847204600E0002002B05D
S2140822E070BD00BF79210800B9210800ED2108005B
S2140822F0F0B583B007460E46154602F0F044B4F132
S214082300205F26D006D8B4F1006F0AD0B4F1805FFB
S21408231013D034E0B4F1405F1FD0B4F1605F1CD036
S2140823202DE04FF000613246164B984715F0010F26
S21408233014BF7E663E66012022E04FF0805132468A
S214082340104B984715F0010F14BF7E663E660120B5
S21408235016E00D4B9847012012E005F0605205F094
S2140823600103009338463146B2F1605F14BF00227D
S2140823700122C5F38003054CA047012000E0002099
S21408238003B0F0BD79210800B9210800ED21080046
S2140823902DE9F04104460E46104B98470546204660
S2140823A00F4B9847054017D00E4F07F10C046C37B3
S2140823B054F80C3CB3420AD154F8081C294206D0FB
S2140823C023683046984754F8083C25EA0305BC427B
S2140823D002D01034002DEBD1BDE8F081152208009C
S2140823E019220800508C072008B502480B21024B1A
S2140823F0984708BD000E0E409123080008B502480D
S2140824000C21024B984708BD00100E409123080087
S21408241008B502480D21024B984708BD00120E4029
S2140824209123080008B502480E21024B984708BDBC
S21408243000140E4091230800174B1A6B22F0700206
S214082440104318639B6E13F0080F09D14FF400630E
S214082450114901E0013B19D08A6E12F0080FF9D035
S2140824600D4B1A6B22F0030242F002021A63986EB2
S21408247010F008000CD14FF40063074901E0013B57
S21408248008D08A6E12F0080FF9D0704701207047FE
S214082490002070470120704700060E4038B11149E9
S2140824A00B6A114A1A40114B13430B6270470D4AC8
S2140824B0136A23F45C1323F0030343F45C1343F01A
S2140824C00103090289B20B431362936E13F0010FDE
S2140824D0FBD0044A136A43F09B7343F480331362B9
S2140824E0704700BF00060E40FCFFC8FE020037011A
S2140824F0024B986E00F48030704700BF00060E400E
S2140825004FF00052014B9A62704700BF00060E401B
S214082510024B986E00F00200704700BF00060E409F
S2140825202C2820D81F280DD8124B9A6901238340DF
S2140825301A40934219D0012303FA00F00D4B186194
S214082540002070470B4BD3F808212038012383401E
S2140825501A4093420BD0012303FA00F0054BC3F848
S21408256000010020704701207047002070470020B7
S214082570704700BF00060E40FEE700BF10B51E4BB2
S2140825801E4A9A4203D01E4B1B4A9A4204D31D4B3E
S2140825901D4A9A420FD31AE01C4B1D4CE41A24F02D
S2140825A0030404340023144814495A581A500433B0
S2140825B0A342FAD1EBE7174B1749C91A21F00301D2
S2140825C01A1D1144002243F8042F8B42FBD1134AEC
S2140825D022F0604323F07F0311498B6002F16042CA
S2140825E0B2F5801F03D28A6842F000528A600D4B0B
S2140825F098470D4B9847FEE70000072058910800BB
S214082600DC090720088D0720E009072004000720BA
S214082610DF090720DC090720038D072000000800D3
S21408262000ED00E0E1310800B52708003E4B1B6BC3
S21408263003F00303032B5FD8DFE803F0020E2B2B0F
S2140826403A4B5B6913F0800F14BF4FF400424FF407
S214082650FA42374B1A604FE0334B1B6A13F0807F01
S21408266003D0344A324B1A6046E0334A304B1A607D
S2140826702D4B1B6A03F07003102B02D0202B04D0BE
S2140826803AE02E4A2A4B1A6036E02A4A284B1A6045
S21408269032E0254B1B6A13F0807F03D0254A244B73
S2140826A01A6012E0244A224B1A601F4B1B6A03F07A
S2140826B07003102B02D0202B04D006E01F4A1C4BB8
S2140826C01A6002E01B4A1A4B1A60174B1B6B03F082
S2140826D00303022B0DD1144B986A996A144BC0F366
S2140826E00A401A6800FB0222C9B2B2FBF1F21A606D
S2140826F002E0134A0E4B1A600B4B1B6B03F0700379
S214082700702B07D10A4B1A680E49A1FB0202520821
S2140827101A607047044B196B054BC1F302111A680F
S214082720CA401A60704700BF00060E40101A0E40D6
S21408273038010720001BB70000093D0000127A0088
S214082740001C4E0EABAAAAAA094B1B6813B9094A65
S214082750074B1A60064B1B681A180749914204DB98
S2140827601046034A1060184670474FF0FF3070470F
S214082770C08C072008AD0720FC7F08204FF0FF30EC
S214082780704700BF4FF400534B600020704700BFEF
S214082790012070470020704710B50B20044CA04756
S2140827A00C20A0470D20A0470E20A04710BD00BF54
S2140827B02125080010B584B0244B9847244B984729
S2140827C0244CA047244B9847A047244B9847244BB3
S2140827D09847244B98472448244B9847022300934D
S2140827E00023019302930393214822494FF48072F1
S2140827F0214CA047012802D020481C4B98470323A9
S214082800009300230193029303931D481D494FF438
S2140828108072194CA047012802D01B48134B9847D2
S214082820052300930023019302930393174818493E
S2140828304FF48072104CA047012802D015480B4B65
S2140828409847154B9847002004B010BDF92008009B
S2140828509520080099270800B1090800F50808001F
S21408286099020800290A0800DC8E080031320800A0
S21408287005050800E88E08009D130800F88E080075
S214082880A5030800208F08002C8F0800A90108005F
S214082890488F08005C8F0800A515080031F0004333
S2140828A010B408D00F4AA3F5801494420AD804201E
S2140828B05DF8044B704700280CBF022003205DF823
S2140828C0044B7047B3F5801F01D20320F7E7064A8A
S2140828D0934201D00020F2E7D0F1010038BF002073
S2140828E0EDE700BFFFFFDF7F0000F07F81F00041CB
S2140828F002E000BF83F0004330B54FEA41044FEAD8
S214082900430594EA050F08BF90EA020F1FBF54EA72
S214082910000C55EA020C7FEA645C7FEA655C00F00E
S214082920E2804FEA5454D4EB5555B8BF6D420CDDDF
S2140829302C4480EA020281EA030382EA000083EA62
S214082940010180EA020281EA0303362D88BF30BD02
S21408295011F0004F4FEA01314FF4801C4CEA113158
S21408296002D0404261EB410113F0004F4FEA0333B7
S2140829704CEA133302D0524263EB430394EA050F42
S21408298000F0A780A4F10104D5F1200E0DDB02FAB1
S2140829900EFC22FA05F2801841F1000103FA0EF245
S2140829A0801843FA05F359410EE0A5F120050EF10B
S2140829B0200E012A03FA0EFC28BF4CF0020C43FA3C
S2140829C005F3C01851EBE37101F0004507D54FF049
S2140829D0000EDCF1000C7EEB00006EEB0101B1F599
S2140829E0801F1BD3B1F5001F0CD349085FEA3000DF
S2140829F04FEA3C0C04F101044FEA445212F5800FEA
S214082A0080F09A80BCF1004F08BF5FEA500C50F186
S214082A10000041EB045141EA050130BD5FEA4C0C69
S214082A20404141EB010111F4801FA4F10104E9D1F2
S214082A3091F0000F04BF01460020B1FA81F308BFE9
S214082A402033A3F10B03B3F120020CDA0C3208DDB5
S214082A5002F1140CC2F10C0201FA0CF021FA02F190
S214082A600CE002F11402D8BFC2F1200C01FA02F100
S214082A7020FA0CFCDCBF41EA0C019040E41AA2BF25
S214082A8001EB0451294330BD6FEA04041F3C1CDAED
S214082A900C340EDC04F11404C4F1200220FA04F00D
S214082AA001FA02F340EA030021FA04F345EA0301B7
S214082AB030BDC4F10C04C4F1200220FA02F001FA79
S214082AC004F340EA0300294630BD21FA04F02946FB
S214082AD030BD94F0000F83F4801306BF81F4801194
S214082AE00134013D4EE77FEA645C18BF7FEA655C07
S214082AF029D094EA050F08BF90EA020F05D054EAD9
S214082B00000C04BF1946104630BD91EA030F1EBFDD
S214082B100021002030BD5FEA545C05D140004941E1
S214082B2028BF41F0004130BD14F580043CBF01F5D4
S214082B30801130BD01F0004545F0FE4141F47001BA
S214082B404FF0000030BD7FEA645C1ABF1946104695
S214082B507FEA655C1CBF0B46024650EA013406BF96
S214082B6052EA033591EA030F41F4002130BD00BF55
S214082B7090F0000F04BF0021704730B54FF4806412
S214082B8004F132044FF000054FF0000150E700BF93
S214082B9090F0000F04BF0021704730B54FF48064F2
S214082BA004F1320410F0004548BF40424FF00001DF
S214082BB03EE700BF42004FEAE2014FEA31014FEA22
S214082BC002701FBF12F07F4393F07F4F81F0605171
S214082BD0704792F0000F14BF93F07F4F704730B5E0
S214082BE04FF4607401F0004521F0004120E700BF73
S214082BF050EA010208BF704730B54FF000050AE0FA
S214082C0050EA010208BF704730B511F0004502D5FA
S214082C10404261EB41014FF4806404F132045FEAFC
S214082C20915C3FF4DCAE4FF003025FEADC0C18BFA1
S214082C3003325FEADC0C18BF033202EBDC02C2F197
S214082C40200300FA03FC20FA02F001FA03FE40EA29
S214082C500E0021FA02F11444C1E600BF70B54FF029
S214082C60FF0C4CF4E06C1CEA11541DBF1CEA13550B
S214082C7094EA0C0F95EA0C0F00F0DEF82C4481EA73
S214082C80030621EA4C5123EA4C5350EA013518BF93
S214082C9052EA033541F4801143F4801338D0A0FB80
S214082CA002CE4FF00005E1FB02E506F00042E0FB2D
S214082CB003E54FF00006E1FB03569CF0000F18BF33
S214082CC04EF0010EA4F1FF04B6F5007F64F54074DB
S214082CD004D25FEA4E0E6D4146EB060642EAC6216E
S214082CE041EA55514FEAC52040EA5E504FEACE2EDB
S214082CF0B4F1FD0C88BFBCF5E06F1ED8BEF1004FDE
S214082D0008BF5FEA500E50F1000041EB045170BD59
S214082D1006F0004646EA010140EA020081EA03019D
S214082D20B4EB5C04C2BFD4EB0C0541EA045170BD99
S214082D3041F480114FF0000E013C00F3AB8014F113
S214082D40360FDEBF002001F0004170BDC4F100045C
S214082D50203C35DA0C341BDC04F11404C4F12005DD
S214082D6000FA05F320FA04F001FA05F240EA020038
S214082D7001F0004221F0004110EBD37021FA04F66E
S214082D8042EB06015EEA430E08BF20EAD37070BD28
S214082D90C4F10C04C4F1200500FA04F320FA05F087
S214082DA001FA04F240EA020001F0004110EBD37089
S214082DB041F100015EEA430E08BF20EAD37070BDF9
S214082DC0C4F1200500FA05F24EEA020E20FA04F3D2
S214082DD001FA05F243EA020321FA04F001F0004181
S214082DE021FA04F220EA020000EBD3705EEA430EF2
S214082DF008BF20EAD37070BD94F0000F0FD101F021
S214082E000046400041EB010111F4801F08BF013C59
S214082E10F7D041EA060195F0000F18BF704703F097
S214082E200046520043EB030313F4801F08BF013D1E
S214082E30F7D043EA0603704794EA0C0F0CEA1355DA
S214082E4018BF95EA0C0F0CD050EA410618BF52EA94
S214082E504306D1D181EA030101F000414FF000009A
S214082E6070BD50EA410606BF1046194652EA4306A8
S214082E7019D094EA0C0F02D150EA013613D195EA1C
S214082E800C0F05D152EA03361CBF104619460AD164
S214082E9081EA030101F0004141F0FE4141F470016E
S214082EA04FF0000070BD41F0FE4141F4780170BD5E
S214082EB070B54FF0FF0C4CF4E06C1CEA11541DBFC3
S214082EC01CEA135594EA0C0F95EA0C0F00F0A7F8C5
S214082ED0A4EB050481EA030E52EA03354FEA0131F2
S214082EE000F088804FEA03334FF0805545EA131305
S214082EF043EA12634FEA022245EA111545EA1065CD
S214082F004FEA00260EF000419D4208BF964244F163
S214082F10FD0404F5407402D25B084FEA3202B61A82
S214082F2065EB03055B084FEA32024FF480104FF456
S214082F30002CB6EB020E75EB030E22BFB61A7546CA
S214082F4040EA0C005B084FEA3202B6EB020E75EB5D
S214082F50030E22BFB61A754640EA5C005B084FEAC5
S214082F603202B6EB020E75EB030E22BFB61A754692
S214082F7040EA9C005B084FEA3202B6EB020E75EB9D
S214082F80030E22BFB61A754640EADC0055EA060E5E
S214082F9018D04FEA051545EA16754FEA06164FEAA1
S214082FA0C30343EA52734FEAC2025FEA1C1CC0D14D
S214082FB011F4801F0BD141EA00014FF000004FF0DA
S214082FC0004CB6E711F4801F04BF01430020B4F19B
S214082FD0FD0C88BFBCF5E06F3FF6AFAEB5EB030C53
S214082FE004BFB6EB020C5FEA500C50F1000041EB50
S214082FF0045170BD0EF0004E4EEA113114EB5C041D
S214083000C2BFD4EB0C0541EA045170BD41F48011EF
S2140830104FF0000E013C90E645EA060E8DE60CEAF7
S214083020135594EA0C0F08BF95EA0C0F3FF43BAF14
S21408303094EA0C0F0AD150EA01347FF434AF95EACB
S2140830400C0F7FF425AF104619462CE795EA0C0FAF
S21408305006D152EA03353FF4FDAE1046194622E77C
S21408306050EA410618BF52EA43067FF4C5AE50EA56
S21408307041047FF40DAF52EA43057FF4EBAE12E746
S2140830804FF0FF3C06E000BF4FF0010C02E000BF27
S2140830904FF0010C4DF804CD4FEA410C7FEA6C5C0A
S2140830A04FEA430C18BF7FEA6C5C1BD001B050EAAD
S2140830B0410C0CBF52EA430C91EA030F02BF90EA98
S2140830C0020F0020704710F1000F91EA030F58BF57
S2140830D0994208BF90422CBFD8176FEAE37040F0B9
S2140830E0010070474FEA410C7FEA6C5C02D150EA57
S2140830F0013C07D14FEA430C7FEA6C5CD6D152EA12
S214083100033CD3D05DF8040B704700BF84461046D6
S21408311062468C461946634600E000BF01B5FFF7D5
S214083120B7FF002848BF10F1000F01BD4DF808EDA5
S214083130FFF7F4FF0CBF012000205DF808FB00BF76
S2140831404DF808EDFFF7EAFF34BF012000205DF8D0
S21408315008FB00BF4DF808EDFFF7E0FF94BF01201D
S21408316000205DF808FB00BF4DF808EDFFF7CEFF1E
S21408317094BF012000205DF808FB00BF4DF808ED5D
S214083180FFF7C4FF34BF012000205DF808FB00BF2E
S2140831904FEA410212F5001215D211D56FF4787372
S2140831A0B3EB625212D94FEAC12343F0004343EA15
S2140831B0505311F0004F23FA02F018BF40427047F0
S2140831C04FF00000704750EA013005D111F000407A
S2140831D008BF6FF0004070474FF00000704700BF10
S2140831E070B50F4E0F4D761BB61007D0043D002461
S2140831F0013455F8043F9847A642F9D10A4E0B4DBC
S21408320005F094FF761BB61008D0043D0024013460
S21408321055F8043F9847A642F9D170BD70BD00BF67
S2140832203891080038910800409108003891080045
S2140832300FB410B5074B82B004AC54F8042B1868CA
S21408324023468168019401F083FC02B0BDE8104073
S21408325004B0704768050720844641EA000313F067
S214083260030349D1403A23D30B6803604B68436095
S2140832708B688360CB68C3600B6903614B694361E5
S2140832808B698361CB69C3610B6A03624B6A4362CD
S2140832908B6A8362CB6AC3620B6B03634B6B4363B5
S2140832A08B6B8363CB6BC36340304031403ADBD2D1
S2140832B030320BD30B6803604B6843608B688360BF
S2140832C0CB68C36010301031103AF3D20C3205D3F5
S2140832D051F8043B40F8043B043AF9D2043208D0CB
S2140832E0D2071CBF11F8013B00F8013B01D30B883D
S2140832F003806046704700BF082A13D38B07B1D0F7
S21408330010F00303AED0C3F10403D21ADB071CBFC8
S21408331011F8013B00F8013BA4D331F8023B20F832
S214083320023B9FE7043AD9D3013A11F8013B00F86B
S214083330013BF9D20B7803704B7843708B78837017
S21408334060467047F0B4840743D0541E002A3ED027
S214083350CDB2034603E0621E002C38D0144603F8AC
S214083360015B9A07F7D1032C2AD9CDB245EA052581
S2140833700F2C45EA054515D9A4F110073F0903F1B6
S214083380100606EB07161A46156055609560D56058
S2140833901032B242F8D104F00F040137032C03EBC5
S2140833A007130DD91E462246043A032A46F8045B3C
S2140833B0FAD8221F22F003020432134404F003044E
S2140833C02CB1C9B21C4403F8011BA342FBD1F0BCC4
S2140833D0704714460346C6E700290CBF022200229F
S2140833E04FF4806300F000B82DE9F0413C4D0446E8
S2140833F02D68884616461F4615B1AB6B002B4FD076
S214083400022E30D8002F2EDB2846214603F0D4FAA9
S214083410A38900226260A2611A0628D423F08303D7
S2140834209BB2022EA3812DD0B8F1000F3CD0012EFE
S21408343013D09BB203F008002A4A80B2EA63C4F8A5
S2140834400080C4F81080676178B113F0030F18BFC6
S2140834500027A7600020BDE8F08143F001037A4208
S214083460A381A261E5E74FF0FF30BDE8F08128466A
S214083470216903F001FCA389022E23F083039BB283
S214083480A381D1D1002004F1430243F002030025B2
S2140834900121A381A560226022616161BDE8F081F7
S2140834A0284603F0A5FAABE7002F08BF4FF480675D
S2140834B0384603F0DBFE804628B1A38943F0800334
S2140834C09BB2A381B3E74FF4806003F0CFFE80463B
S2140834D018B9A3894FF0FF30D5E74FF48067ECE7BB
S2140834E068050720E56908000EB4F0B59CB021AC65
S2140834F054F8042B0E49064623464FF4027E6FF016
S214083500004508684FF6FF7702A9029606960194CA
S214083510ADF814E004950795ADF8167000F06CF851
S214083520029B00221A701CB0BDE8F04003B070473A
S2140835306805072020F0030110F00300C0F1000022
S21408354051F8043B00F1040C4FEACC0C6FF0000273
S2140835501CBF22FA0CF213434FF0010C4CEA0C2C59
S2140835604CEA0C4CA3EB0C0222EA030212EACC1239
S21408357004BF51F8043B0430F4D013F0FF0F1FBF0C
S214083580013013F47F4F013013F47F0F18BF01305A
S214083590704700BF40EA01039B0770B42AD1032A8C
S2140835A028D90C460346214654F8045BA5F1013693
S2140835B026EA050616F0803F05D1043A032A43F8A2
S2140835C0045B2146EFD89AB10C78013A1C70013397
S2140835D03CB16AB111F8014F013A03F8014B002CCF
S2140835E0F7D12AB11A44002103F8011B9342FBD1F4
S2140835F070BC70470346E6E72DE9F04FC9B0109354
S2140836000C9191460D9003F0BDFD00681590FFF7EC
S21408361091FF0C9C1890A3891E0603D52369002BDE
S21408362001F0818038ACA44608942B940025002429
S214083630CDE91645002311932D932C931A931993CD
S2140836400E93664699F80030002B00F0F880252B7C
S21408365000F0F58009F1010201E0252B04D013786B
S21408366014460132002BF8D1C9EB04057DB12C9B1A
S2140836702D9A01332A44072BC6F8009075602D92C0
S2140836802C9300F3C28008360E9828440E902378B0
S214083690002B00F0C280002394F801801A468DF8AB
S2140836A08F300F93099304F101094FF0FF340A9401
S2140836B009F10109A8F12003582B00F2C583DFE8B9
S2140836C013F06A02C303C3037102C303C303C3032D
S2140836D0C303C303C30314036603C3039D00C000E8
S2140836E0C30378027F027F027F027F027F027F0287
S2140836F07F027F027F02C303C303C303C303C3035C
S214083700C303C303C303C303C30390027103C30302
S2140837107103C303C303C303C3036A03C303C30317
S2140837207800C303C303C303C303C3035900C30317
S214083730C303AF02C303C303C303C303C303C30361
S214083740C303C303C303C3033703480371037103E7
S2140837507103FF024803C303C3030803C303C50278
S2140837607C002003A303C303D902C3035F00C3037B
S214083770C303DE00DDF824C04CF0100CCDF824C0DE
S214083780099CA20600F15483099CE30600F1BD8556
S214083790DDF824C01CF0400F00F0B785DDF840C007
S2140837A00025BCF800400CF1040C0123CDF840C0FD
S2140837B08CE0099D45F010050995DDF824C01CF03D
S2140837C0200340F02A83DDF824C01CF0100240F0E5
S2140837D0A485DDF824C01CF0400300F09E85DDF8C3
S2140837E040C01346BCF800400CF1040C0025CDF888
S2140837F040C06BE00F9C109364420F94099D45F0FF
S2140838000405099599F8008052E70D980C992BAA9B
S21408381004F0C2FD40B938AE36E72D9B23B10D98AB
S2140838200C992BAA04F0B8FD0C9C0E98A38913F0EB
S214083830400F18BF4FF0FF3049B0BDE8F08F4C4638
S21408384025E799F8008009F10100B8F12A0F01F080
S2140838500C81A8F13003092B98BF002101F26B8078
S21408386010F8018B01EB810103EB4101A8F130034D
S214083870092BF5D941EAE1710A9181461AE7099DB3
S214083880A14CAF061A948DF88F2040F1D181DDF84F
S21408389040C00CF1070323F0070303F10804109453
S2140838A0D3E90045DDF824C01CF0010F00F062845F
S2140838B054EA050000F05E8430234CF0020C8DF8C4
S2140838C090308DF89180CDF824C002234FF0000A7E
S2140838D08DF88FA00A99002905DBDDF824C02CF0A6
S2140838E0800CCDF824C054EA050040F0C5820A9939
S2140838F0002940F0C182002B40F03884DDF824C04F
S2140839001CF0010F00F0328448AF3023089D07F8FA
S214083910413DEC1BDDF828C000256445A8BFA44639
S214083920CDF82CC01495BAF1000F02D00B9D0135C6
S2140839300B95099B13F00203129302D00B9D0235D8
S2140839400B95DDF824C01CF0840CCDF84CC040F074
S21408395090820F9DDDF82CC0CCEB050BBBF1000F59
S21408396040F38782BBF1100F2D992C9ADFF8A0A19F
S2140839702CDD1B97304657461025CA460C9EA14696
S2140839800D9C06E0ABF1100BBBF1100F00F1080020
S21408399017DD01321031072A2D912C9207604560F9
S2140839A0F0DD204631462BAA04F0F6FC00287FF40A
S2140839B03BAFABF1100BBBF1100F2D992C9A38A822
S2140839C0E7DC4C46D146BA461B9F064601320BEB4F
S2140839D0010C072ACDF8B4C02C9286E8000C00F338
S2140839E01A849DF88FA00836BAF1000F0FD02C9BCA
S2140839F00CF1010C01330DF18F010122072BCDF8D4
S214083A00B4C02C9386E8060000F3A4830836129BFD
S214083A1073B12C9B0CF1020C013324A90222072B4C
S214083A20CDF8B4C02C9386E8060000F387830836E2
S214083A30139D802D00F0CA820A9DC4EB050ABAF1D0
S214083A40000F3BDDBAF1100F2C9B304D2BDD0A948E
S214083A5032464FF0100B2E4661460D9C0C9D06E034
S214083A60AAF1100ABAF1100F02F1080217DD0133A5
S214083A701031072B2D912C9382E84008F0DD204664
S214083A8029462BAA04F088FC00287FF4CDAEAAF1BC
S214083A90100ABAF1100F2D992C9B38AAE7DC0A9C5D
S214083AA035468C4616460133D444072BCDF8B4C0A9
S214083AB02C9386E8200400F335830836099DED0527
S214083AC000F124822C9BA4440133072BCDF8B4C004
S214083AD0376074602C9300F30F830836099C6307DD
S214083AE049D50F9D0B982C1A002C44DD102C2C9BC6
S214083AF0DFF81CA02BDD574610256246DDF830801F
S214083B00DDF834A00BE000BFC08F08008C8F0800DB
S214083B10E08F0800103C102C06F1080615DD01336E
S214083B201032072B2D922C9337607560F2DD5046C5
S214083B3041462BAA04F030FC00287FF475AE103CF2
S214083B40102C2D9A2C9B38AEE9DC9446BA460133E5
S214083B50A444072BCDF8B4C02C93C6F800A0746014
S214083B6009DD0D980C992BAA04F016FC00287FF4A2
S214083B705BAEDDF8B4C00E9C0B980F9DA842ACBF98
S214083B80241864190E94BCF1000F40F0C18200237B
S214083B902C9338AE56E599F80080002A7FF488AD55
S214083BA0202285E5099D45F00105099599F80080CC
S214083BB07EE5099D45F08005099599F8008077E52A
S214083BC00024A8F130030F94214619F8018B01EB65
S214083BD0810103EB4101A8F13003092BF5D90F91B8
S214083BE068E5DDF824C08DF88F204CF0100CCDF871
S214083BF024C0099CA50640F1B280109DE91D21F05D
S214083C000701D1E900230831109114461D46002A01
S214083C1073F1000CC0F294839DF88FA0012359E637
S214083C20099DB64CAF068DF88F201A943FF52FAE37
S214083C30099DED0640F14384DDF840C00025DCF818
S214083C4000400CF1040CCDF840C02BE6DDF824C08B
S214083C508DF88F201CF0200F00F04084109C2168FF
S214083C600E9CE5172B46109D224604351095C1E993
S214083C700023E7E4109C4FF0000A27688DF88FA011
S214083C80251D002F00F0E9850A9C3846002CC0F256
S214083C909B855146224603F08DFD002800F01386CA
S214083CA00A9CC01BA042B8BF0446109524EAE475D7
S214083CB0CDF828A0CDF850A00B959DF88FA032E639
S214083CC0DDF824C04CF0400CCDF824C099F80080EC
S214083CD0EEE499F800804B46B8F16C0F00F07F844C
S214083CE0099D45F010050995E2E4109C109D24688E
S214083CF02B1D002C0F94FFF67DAD109399F80080CD
S214083D00D6E4109BDDF824C0109D7D4804351C6859
S214083D104FF0780830234CF0020C10958DF8903050
S214083D20CDF824C000258DF891801A900223CDE5A1
S214083D30109B109D1A680124002304359A460B949C
S214083D408DF8B82010958DF88F300A9314932EAFFF
S214083D50EFE5099C8DF88F20A5063FF54EAFDDF8F8
S214083D6024C01CF0100F40F0DF82DDF824C01CF0E1
S214083D70400F00F0D982DDF840C0BCF900400CF1D5
S214083D80040CE51722462B46CDF840C03FE799F8C5
S214083D9000802B228CE4099D45F00805099599F8C2
S214083DA0008085E4109D8DF88F20EB1D23F0070317
S214083DB003F1080CCDF840C0D3E90045CDE9164517
S214083DC0DDE91601FEF76AFD0128DDE9160140F077
S214083DD05C8300220023FFF7B3F9002840F06385D0
S214083DE09DF88FA003250B95099D464F25F0800565
S214083DF0454B0024099500250A94B8F1470FD8BF0B
S214083E001F46032414958EE5DDF824C04CF0200CDC
S214083E10CDF824C099F800804AE4109CE31D23F0EE
S214083E20070303F108051095D3E9004500234DE57F
S214083E30109DEB1D23F0070303F1080CD3E900459A
S214083E40CDF840C0012341E58DF88F20B8F1000F6A
S214083E503FF4E3AC00234FF0010C9A46CDF82CC093
S214083E608DF8B8808DF88F300A93149364462EAF79
S214083E705FE5DDF8B4C0B7E5012B00F0EC80022B57
S214083E800DF1DF0318D1DDF868C0194604F00F00FD
S214083E9022091CF8000042EA05722B09087052EA4B
S214083EA003000F4614461D4601F1FF31EED1089D6A
S214083EB0CDE91E23EC1B2DE5E00840EA457004F02A
S214083EC00702E908303250EA010C1F461A70044609
S214083ED00D4603F1FF33EFD1099CCDE91C01E0073D
S214083EE0394640F1C180302A00F0BE80089D1F4642
S214083EF03023EC1B01F8013C0CE500BFAC8F080032
S214083F00C08F0800A08F08009C8F0800B8F1650FC6
S214083F1040F3AD80DDE9160100220023CDF81CC071
S214083F20FFF704F9DDF81CC0002800F026812C9B5A
S214083F30AA4901330CF1010C0122072BCDF8B4C0B5
S214083F402C9386E8060000F3ED820836259B119C24
S214083F50A34203DB099DEC077FF5C0AD2C9B189C9C
S214083F600133159DA444072BCDF8B4C035607460A2
S214083F702C9300F33E830836119D6C1E002C7FF7A9
S214083F80ADAD102C2C9B964D40F3978110276246BA
S214083F90DDF83480DDF830A004E00836103C102C3C
S214083FA040F38A8101331032072B2D922C9386E832
S214083FB0A000F2DD404651462BAA04F0EDF9002891
S214083FC07FF432AC2D9A2C9B38AEE7E70F9D0B9802
S214083FD0C0EB050ABAF1000F7FF72EADBAF1100F45
S214083FE02C9B7F4D2BDD129432464FF0100B2E463D
S214083FF061460D9C0C9D06E0AAF1100ABAF1100F56
S21408400002F1080217DD01331031072B2D912C938E
S21408401082E84008F0DD204629462BAA04F0BCF9C1
S21408402000287FF401ACAAF1100ABAF1100F2D99F6
S2140840302C9B38AAE7DC129C35468C46164601337C
S214084040D444072BCDF8B4C02C9386E8200400F39C
S2140840500F820836F0E4002D08BF0A2C80F038815D
S214084060303448AF07F8414D089DEC1B52E4119CCC
S214084070012C2C9C40F3D28101340CF1010301225F
S214084080072C2D9337602C94726000F3D88108367D
S214084090159DDDF8608001343560189D9844072C1E
S2140840A0CDF8B4802C94756000F3D5810836DDE928
S2140840B0160100220023FFF739F8119D002840F06A
S2140840C0B9806B1E013401379844072C2C94CDF820
S2140840D0B4803760736000F3E2800836DDF864C0A9
S2140840E00134199DC44427AB072CCDF8B4C02C94D2
S2140840F086E828007FF7F1AC0D980C992BAA04F0F7
S2140841004BF900287FF490ABDDF8B4C038AEE5E490
S2140841100D980C992BAA04F03FF900283FF437AD08
S214084120FFF782BB0D980C992BAA04F035F90028E6
S2140841307FF47AABDDF8B4C038AEBFE40D980C99BE
S2140841402BAA04F029F900287FF46EABDDF8B4C07A
S21408415038AE6DE40D980C992BAA04F01DF90028CA
S2140841607FF462ABDDF8B4C038AE50E40A9C38AFD2
S214084170FFF7D0BB0223FFF7A9BB259B002B40F314
S214084180DD81119C149DDDF844A0AC42A8BF2C46E6
S214084190002CBA440BDD2C9BA4440133072BCDF826
S2140841A0B4C0376074602C9300F31E830836149DE1
S2140841B024EAE4742C1B002C40F3D780102C2C9B8C
S2140841C0074D40F3A3810A974FF010082F46624622
S2140841D02546DDF834B00C9C09E000BFDC8F0800EB
S2140841E08C8F08000836103D102D40F38B81013364
S2140841F01032072B2D922C9386E88001F2DD584664
S21408420021462BAA04F0C8F800287FF40DAB2D9A97
S2140842102C9B38AEE7E70D980C992BAA04F0BCF84F
S21408422000287FF401AB9DF88FA0DDF8B4C038AE47
S214084230FFF7DABB6F1E002F7FF750AF102FAE4D7B
S21408424023DD43464FF0100ADDF83480DDF830B041
S21408425004E0103F102F06F1080615DD0134103370
S214084260072C2D932C9486E82004F2DD4046594608
S2140842702BAA04F091F800287FF4D6AA103F102F36
S2140842802D9B2C9C38AEE9DC98460134B844072CA4
S214084290CDF8B4802C9486E8A0007FF71EAF0D9862
S2140842A00C992BAA04F078F800287FF4BDAADDF84C
S2140842B0B4802C9C38AE11E794460133A444072BEF
S2140842C0CDF8B4C02C93356074607FF706AC13E75E
S2140842D00DF1DF0B204629460A22002304F0A6FA31
S2140842E030328BF80020204629460A22002304F0A4
S2140842F09DFA04460D4654EA050C5F460BF1FF3B53
S214084300E8D1089DEC1BFFF705BB109D01232C6820
S214084310043510950025FFF7D9BA109D2C6804358A
S21408432010950025FFF7D2BA109D2C680435109515
S214084330E51722462B46002A73F1000CBFF66CAC34
S2140843404FF02D0A644265EB45058DF88FA00123D2
S214084350FFF7C0BA0D980C992BAA04F01DF8002890
S2140843607FF462AADDF8B4C038AE149D259C2F44AD
S214084370119DAC4242DB099DE9073FD41198C7EB73
S2140843800A05041BAC42B8BF2546002D0BDD2C9B46
S214084390AC440133072BCDF8B4C0376075602C9356
S2140843A000F34C82083625EAE575641B002C7FF777
S2140843B095AB102C2C9B504D7FF77FAF102762468D
S2140843C0DDF83480DDF830A004E00836103C102C08
S2140843D07FF772AF01331032072B2D922C9386E8A5
S2140843E0A000F2DD404651462BAA03F0D5FF002870
S2140843F07FF41AAA2D9A2C9B38AEE7E7189D2C9BBB
S214084400AC44159D01333560189D072BCDF8B4C014
S21408441075602C9300F3F4810836AFE7099DEA0728
S2140844203FF52AAE01340CF101080123072CCDF81C
S214084430B4802C94376073607FF74FAE2FE70D98E3
S2140844400C992BAA03F0A8FF00287FF4EDA92D9B52
S2140844502C9C38AE1CE60D980C992BAA03F09CFFF2
S21408446000287FF4E1A9DDF8B4802C9C38AE1EE65F
S2140844700D980C992BAA03F08FFF00287FF4D4A977
S214084480DDF8B4C038AEFFF7D7BAFEF707FA00284B
S21408449040F0BB80099C194F194B4FF0030C24F0D1
S2140844A0800409940A90CDF82CC01490B8F1470FF0
S2140844B0D8BF1F4664469DF88FA0FFF734BA099CFC
S2140844C0640640F15081DDF840C00025BCF8004085
S2140844D00CF1040CCDF840C0FFF7E4B9DDF824C0B1
S2140844E01CF0100F00F04681109C0E9D23680434C3
S2140844F010941D60FFF7A6B88C8F0800A88F0800D8
S214084500A48F08002C463D460A9F94460133A444CF
S214084510072BCDF8B4C02C93356074603FF71AAFFC
S214084520083622E70D980C992BAA03F035FF0028C9
S2140845307FF47AA9DDF8B4C038AE07E52C9AB749F7
S21408454001320CF1010C0120072ACDF8B4C02C92D8
S2140845503160706000F3F78008361C462CB9119D50
S2140845601DB9099DE8077FF5B9AA2C9B159D1899D2
S21408457001333560189D6144072B2D9175602C9387
S21408458000F3DE8106F108026442002C40F30B813A
S214084590102CA34D40F34881A34610260C46DDF8A0
S2140845A03480DDF830A006E00832ABF1100BBBF122
S2140845B0100F40F3378101331034072B2D942C93BA
S2140845C082E86000F0DD404651462BAA03F0E4FE80
S2140845D000287FF429A92D9C2C9B38AAE5E7099C7E
S2140845E009F1010944F02004099493F80180FFF7C3
S2140845F05FB80D980C992BAA03F0CEFE00287FF41E
S21408460013A9DDF8B4C038AEB6E40A9D28F0200A2F
S214084610013500F0A580BAF1470F04D10A9D002D98
S21408462008BF01250A95DDF824C0DDE916234CF4F9
S214084630807C002BCDF848C0C0F29C81DDE9164589
S214084640CDE920454FF0000BB8F1660F00F09B81CE
S214084650B8F1460F00F0A981BAF1450F0ABF0A9CC7
S2140846600A9D651C022025A926AA29AB8DE82100EB
S2140846700392049302910D98DDE9202301F0DCF9FA
S214084680B8F1670F074602D0B8F1470F05D1DDF835
S21408469024C01CF0010F00F09C81BAF1460F07EB0E
S2140846A0050400F01C81DDE9200100220023FEF746
S2140846B03DFD002840F00581299B9C4206D9302103
S2140846C05A1C29921970299B9C42F9D8DB1BBAF10F
S2140846D0470F119300F0ED80B8F1650F40F3F281B3
S2140846E0B8F1660F00F06881259C1494119C149DFF
S2140846F0AC4200F33281DDF824C01CF0010F40F014
S214084700AD8125EAE5732C464FF06708BBF1000F2C
S21408471040F0B280129D0B930995CDF828B09DF80D
S2140847208FA0FFF700B90D98402102F0A7FD206082
S2140847302061002800F0BF81DDF830C04023CCF8A7
S2140847401430FEF76FBF0D980C992BAA03F024FEC1
S21408475000287FF469A8259CDDF8B4C038AEFDE6CD
S21408476006240A945FE7109D2C68043510950025EA
S214084770FFF798B8DDF824C01CF0400F00F08780DB
S214084780109C0E9D2368043410941D80FEF75ABFB3
S2140847900D980C992BAA03F0FFFD00287FF444A877
S2140847A02D992C9B38AADDF844C00133119C8C4403
S2140847B0072BCDF8B4C02C93176054603FF79CAC19
S2140847C002F10806FFF78AB9CDF828A0FEF7B2FE70
S2140847D010950A9D20EAE07C0446CDF82CC0149576
S2140847E09DF88FA0FFF79FB80D980C992BAA03F099
S2140847F0D3FD00287FF418A8DDF8B4C038AED6E498
S2140848000D980C992BAA03F0C7FD00287FF40CA876
S214084810259CDDF8B4C038AEB0E500BFDC8F0800D4
S2140848208C8F080021465C4601332144072B2D91C6
S2140848302C9315605460ABDC0832B4E70D980C99DD
S2140848402BAA03F0A9FD00287EF4EEAF259C11994B
S214084850DDF8B4C00C1B38AEA5E50A9CBA46062C93
S21408486028BF062424EAE47C0A9714971095CDF806
S2140848702CC0974FFFF757B8129D4FF02D0A099591
S21408488000250B938DF88FA00A95FFF74FB8DDF833
S21408489040C00E9CDCF800300CF1040CCDF840C08B
S2140848A01C60FEF7CFBE4FF02D0A8DF88FA0FFF7DD
S2140848B099BA259BDC1C19DB0A9C9C4216DB1493D0
S2140848C014E7234602E724EAE47CCDF82CC00A9CC9
S2140848D010950A9014909DF88FA0FFF724B83B789F
S2140848E0302B00F0AD80259D2C44DCE6A8F10208AC
S2140848F0591E00292591BABF49422D232B23092981
S2140849008DF89C808DF89D3065DC302330318DF82D
S2140849109E308DF89F1028AB119D27AA119C9A1AD5
S214084920012D1992144440F3B7800134002524EA77
S214084930E4731495EAE6002481460A94FEF7BABEA4
S2140849400D980C992BAA03F027FD00287EF46CAF6F
S214084950259C2D992C9B38AA16E6149C119D002C94
S214084960D4BFC4F1020401242C4424EAE4734FF0B3
S2140849706708CBE61799169801F100412090219117
S2140849804FF02D0B60E60A9D032025A926AA29AB21
S214084990019500900392049302910D98DDE9202377
S2140849A001F04AF80A9D074677E60A9C032025A9DF
S2140849B026AA29AB0194ECE7259D0A9C002D1495A0
S2140849C063DDB4BB099DE80733D4149C24EAE4737A
S2140849D09CE6299B7AE60DF1AA023E4DCB1785FB8D
S2140849E00150C3EBA00000EB8003A1EB43010928AC
S2140849F0134601F130021A70014603F1FF32ECDC6F
S214084A0000F130010DF1AB04C9B2944203F8011C61
S214084A105AD90DF19D001A4601E012F8011BA24270
S214084A2000F8011FF9D10DF5907CC3EB4C03F63B5B
S214084A3072E70A9D6C1C149D2C4424EAE47365E610
S214084A40DDE9200100220023FEF770FB00287FF432
S214084A504AAFC5F1010525952C4424E6149D4FF070
S214084A6067086C1C24EAE47350E6109DDDF840C025
S214084A702D680CF10403002D99F801800A9510930F
S214084A808146BEF615AEFEF710BE7CB9099DE9074D
S214084A900CD401231C4639E6DDF824C01CF00103BB
S214084AA07FF443AF149324EAE4732FE60A9DAC1C04
S214084AB024EAE4732AE60D9D0C232B604FF0FF30A2
S214084AC0FEF7BABE259B13E70DF19E0324E700BF49
S214084AD0D48F0800676666664B6E2DE9F0479C041F
S214084AE00E46804691462AD59368126802F1080A4F
S214084AF01BB31AE9A000BF0817D0043D002401E044
S214084B00A74210D0404655F8041F324602F006F871
S214084B10431C04F10104F3D10023C9F80830C9F88E
S214084B200430BDE8F087D9F80830A3EB8703C9F846
S214084B3008300AF1080A002BDBD10020ECE702F067
S214084B4067F90023C9F80830C9F80430BDE8F087CB
S214084B502DE9F04FB1B01C46029190460893069096
S214084B6018B1836B002B00F0E880029DAB899AB2DF
S214084B70900407D46A6E43F4005322F40051AB81C4
S214084B809AB26966110740F1B780DDF808B0DBF81D
S214084B901030002B00F0B08002F01A020A2A00F04B
S214084BA0B78000230DF180090A931593149309938F
S214084BB0CDF84C904E4698F80030002B00F0C8848C
S214084BC0252B00F0C58408F1010201E0252B04D04E
S214084BD0137814460132002BF8D1C8EB040595B1BA
S214084BE0149B159A01332A44072BC6F80080756073
S214084BF0159214937BDD002A40F0D5840998149208
S214084C0028444E4609902378002B00F0ED830021B7
S214084C104FF000024FF0FF3C63788DF84720049170
S214084C208A4604F101080846654608F10108A3F11A
S214084C302002582A00F2D982DFE812F0CB02D70207
S214084C40D702D202D702D702D702D702D702D70294
S214084C5082028F02D70284009302D7022B019601A4
S214084C60960196019601960196019601960196017F
S214084C70D702D702D702D702D702D702D702D7025F
S214084C80D702D7023001D702D702D702D702D702F7
S214084C90D702D702D702D702D7027B01D702D7029C
S214084CA0D702D702D702A401D702D702BF01D7027C
S214084CB0D702D702D702D702D702D702D702D7021F
S214084CC0D702E401FA01D702D702D7021602FA0180
S214084CD0D702D7021B02D7022802890066027D0285
S214084CE0D7023A02D7021901D702D702AF0208360E
S214084CF009982844099086E70698029900F090FDDE
S214084D00B0B9029DAA8902F01A020A2A7FF449AFAE
S214084D10DDF808B0BBF90E30002BFFF642AF069858
S214084D2059464246234600F03DFD31B0BDE8F08FB7
S214084D304FF0FF3031B0BDE8F08F01F059FE14E7B0
S214084D40404208934AF0040A98F800306DE71AF0D3
S214084D5020030490AC4600F0F480DDF820B00BF198
S214084D60070323F0070303F108040894D3E9004572
S214084D7000234FF0000000218DF84700CDF814C03E
S214084D800791BCF1000FA8BF2AF0800A54EA050272
S214084D9040F0AD80BCF1000F40F0A980002B40F039
S214084DA0C0831AF0010F00F0BC83302330AF07F839
S214084DB0413DC7EB09040594DDF814B0079CE345AC
S214084DC0B8BFE346CDF80CB01CB10BF1010BCDF81B
S214084DD00CB01AF00205079505D0DDF80CB00BF1FB
S214084DE0020BCDF80CB01AF084030B9340F01B822C
S214084DF0049DDDF80CB0CBEB0504002C40F31382C1
S214084E00102C40F38984BE4D159A2B4614982546D7
S214084E104FF0100B6446B4461E4606E0831C0CF1A1
S214084E20080C0846103D102D11DD411C10320729CC
S214084E3015928CE840081491F0DD002A40F0E681CF
S214084E40103D102D4FF001031046CC46EDDC3146E0
S214084E506646A4462C460D462244072B1592356016
S214084E607460149300F36D830836591CDEE11AF05B
S214084E70200F0490AC4600F08D80089DEB1D23F0B3
S214084E80070303F1080BD3E90045CDF820B001234A
S214084E906FE74AF0800A98F80030C6E64AF0100A2B
S214084EA01AF0200F0490AC468DF8471000F0C88022
S214084EB0089CE11D21F00701D1E90023083108917B
S214084EC014461D46002A73F1000BC0F2CE83BCF1CF
S214084ED0000F9DF84700A8BF2AF0800A54EA05028A
S214084EE00790CDF814C04FF001033FF453AF012BE1
S214084EF000F01983022B0DF17F0340F04C82DDF899
S214084F0028B0194604F00F0022091BF8000042EAF0
S214084F1005722B09087052EA03000F4614461D4610
S214084F2001F1FF31EED1CDE90E23C7EB0903059356
S214084F3042E74AF0100A1AF020030490AC467FF4C1
S214084F400CAF1AF0100240F011831AF0400300F07C
S214084F500D83DDF820B01346BBF800400BF1040BB8
S214084F600025CDF820B004E7A3F13002002018F899
S214084F70013B00EB800002EB4000A3F13002092A57
S214084F80F5D954E64AF0100A1AF0200F0490AC46F9
S214084F907FF473AF1AF0100F40F0EF821AF0400F4C
S214084FA000F0EB82DDF820B00025BBF800400BF1DE
S214084FB0040B0123CDF820B0DBE6AC46514D1AF0C1
S214084FC0200F04908DF847100A9500F0F080089D91
S214084FD0EA1D22F0070202F1080BCDF820B0D2E94C
S214084FE000451AF0010F00F0AA8254EA050B00F0FB
S214084FF0A68230228DF849304AF0020A8DF84820F9
S2140850000223B6E6089BDDF820B01B6801244FF0A3
S21408501000050BF1040B049003948DF847508DF8A7
S2140850205830CDF820B0059416AF4FF0000CD0E6F7
S2140850301AF0200F0490AC468DF847107FF438AF6E
S2140850401AF0100F40F0A7821AF0400F00F0A38263
S214085050DDF820B0BBF900400BF1040BE51722463B
S2140850602B46CDF820B02DE74AF0400A98F80030D5
S214085070DBE598F8003042466C2B03BF08F10108C0
S2140850804AF0200A53784AF0100ACEE51AF0200FA4
S2140850908DF8471000F0F782089C2168099CE517F0
S2140850A02B46089D224604350895C1E9002382E56B
S2140850B0089CAC4627684FF0000504908DF84750CA
S2140850C00434002F00F03283BCF1000F3846C0F2DB
S2140850D0078362460021CDF804C002F06BFBDDF8BA
S2140850E004C0002800F03A83C01B9DF8475060456E
S2140850F0A8BF60460590089407954FF0000C5BE63D
S21408510000900800AC8F0800089BDDF820B00490DB
S214085110B2481C68302278230BF1040BAC468DF895
S21408512049304AF0020ACDF820B000258DF848200C
S2140851300A9002231DE64AF0200A98F8003074E523
S214085140DDF820B0DBF800000BF104030028FFF6BA
S214085150F7AD089398F8003067E598F800302B21EB
S21408516063E598F8003008F101042A2B00F005835F
S214085170A3F13002092A98BF002500F2FA8214F833
S214085180013B05EB850502EB4505A3F13002092A2C
S214085190F5D945EAE575A04649E5904C1AF0200F82
S2140851A00490AC460A948DF847107FF410AF1AF0B6
S2140851B0100F40F0EA811AF0400F00F0E681DDF8A3
S2140851C020B00025BBF800400BF1040BCDF820B04A
S2140851D007E798F8003000297FF427AD202124E55A
S2140851E04AF0010A98F800301FE504908DF8471039
S2140851F0002B00F0F98001254FF0000B03958DF881
S21408520058308DF847B0059516AF0EE70698029900
S21408521013AAFFF761FC002840F0ED801498159A51
S214085220431CCC46FEE5149B159A591C9DF847006E
S21408523068B101320DF14700012307291592149130
S21408524086E8090000F360810B4608360131079CA2
S21408525064B1023212A8022307291592149186E82F
S214085260090000F357810B46083601310B9D802D47
S21408527000F00181059DC5EB0C04002C2FDD102CD9
S214085280574D22DD30464FF0100B2E462546069C1D
S21408529006E003F1020C08300B46103D102D10DD19
S2140852A0591C10320729159280E840081491F0DD41
S2140852B0002A63D1103D102D4FF0010C13464846C6
S2140852C0EEDC2C46614635460646224407291592EA
S2140852D035607460149100F3C18008360131059D6D
S2140852E007292A44159237607560149140F3C180E7
S2140852F0002A40F0308114924E461AF0040F00F04F
S2140853008B80049DDDF80CB0CBEB0504002C40F335
S2140853108380102C40F31E821499324D1027DDF836
S21408532018A0DDF808B005E0881C08361946103CB9
S214085330102C10DD4B1C1032072B159286E8A000A7
S2140853401493F1DD002A7DD1103C102C4FF001009B
S21408535011464E46EEDC22440728159235607460E6
S214085360149059DD002A4FD1099CDDF80CB0049D35
S214085370AB45ACBF5C44641909945EE020460299CC
S21408538013AAFFF7A9FB002835D1149B159A03F139
S214085390010C484681E7E00840EA457004F0070239
S2140853A0E908303250EA010B1F461A7004460D46CB
S2140853B003F1FF33EFD11AF0010FCDE90C0139469E
S2140853C000F0B980302A3FF4F4AC1F46C7EB090555
S2140853D03023059501F8013CEEE400BFC08F0800B5
S2140853E0F08F080000900800159B23B106980299D4
S2140853F013AAFFF771FB029CA3895B063FF598ACDE
S214085400099831B0BDE8F08F0698029913AAFFF7FD
S21408541063FB0028EFD1159A099CDDF80CB0049DB3
S214085420AB45ACBF5C446419099432B1069802993E
S21408543013AAFFF751FB0028DDD1002014904E4632
S214085440FFF7B9BB5046594613AAFFF745FB002895
S214085450D1D11499159A481C4E4668E7002A40F0A0
S214085460F780059C012320972194159422461493CF
S2140854704E46083641E7049DDDF80CB0CBEB050434
S214085480002C7FF7F7AE102CA64D40F37081294606
S2140854904FF0100B25466446B4460E4606E0981CA8
S2140854A00CF1080C0B46103D102D0FDD591C103260
S2140854B0072915928CE840081491F0DDBAB9103D1A
S2140854C0102D4FF001001346CC46EFDC33466646F7
S2140854D0A4462C461D46224407281592356074605B
S2140854E0149000F3AF800836411C0346C2E60698BF
S2140854F0029913AAFFF7F0FA00287FF47CAF149BF2
S214085500159A581CCC46CEE7002A79D119464E463D
S21408551013469CE6002A40F08480012113464E4636
S214085520A4E64F4648E4002D08BF0A2C46D230347D
S21408553030AF07F8414DC7EB090305933CE4022357
S21408554017E4002A40F0AF80134601214E466DE668
S2140855504446FFF758BB0698029913AAFFF7BCFA09
S21408556000287FF448AF159A4E46C6E6089D2C6874
S214085570043508950025FFF7FCBB089D01232C6819
S214085580043508950025FFF7F4BB089D2C680435FC
S2140855900895002525E5089D2C6804350895E51727
S2140855A022462B468EE40698029913AAFFF794FA29
S2140855B000287FF420AF4E46FFF79ABB0DF17F0B0D
S2140855C003965E46E346204629460A22002303F051
S2140855D02DF930323270204629460A22002303F07D
S2140855E025F904460D4654EA0500374606F1FF3607
S2140855F0E9D1C7EB0903DC46039E0593FFF7DCBB3E
S2140856000698029913AACDF804C0FFF765FADDF8E4
S21408561004C000287FF4EFAE149B159A591C4E461A
S21408562015E60698029913AACDF804C0FFF754FAAF
S214085630DDF804C000287FF4DEAE149B159A591CCA
S2140856404E4613E6002A56D1012113464E4611E669
S2140856500698029913AAFFF73FFA00287FF4CBAE04
S2140856601499159A01314E4639E64FF02D0B6442CF
S21408567065EB45058DF847B0CDF81CB0CDF814C0DD
S2140856800123FFF77EBB1AF0100F1DD11AF0400F4A
S21408569058D0089DDDF824B02B6804350895A3F883
S2140856A000B0FFF788BA0698029913AACDF804C086
S2140856B0FFF712FADDF804C000287FF49CAE149BAE
S2140856C0159A591C4E46B1E5DDF820B0099CDBF862
S2140856D000300BF1040BCDF820B01C60FFF76BBA56
S2140856E00894FDF727FF9DF84740059007944FF06C
S2140856F0000CFFF761BB0698029913AACDF804C000
S214085700FFF7EAF9DDF804C000287FF474AE149BAE
S214085710159A591C4E46ADE5149B159A0133024D51
S214085720FFF79ABBF08F080000900800BCF1060F40
S21408573034BF63460623089423EAE3740593039468
S214085740164F72E4089C099D2368043408941D606B
S214085750FFF731BA1498124D0130FCE59DF8475012
S214085760CDF814C0079508948446FFF725BB08466D
S214085770B1E6A0460025FFF75ABADDF820B098F83B
S2140857800130DBF800500BF10402002D0892A04609
S214085790BFF64BAA4FF0FF35FFF747BAD48F08007D
S2140857A0009008002DE9F0474F6EADF58D6D8846E0
S2140857B01997D8F81C70B1F80CA0B1F80E90079796
S2140857C0D8F824701AAC4FF480652AF0020A00262E
S2140857D069460094049402950595ADF80CA0ADF8BA
S2140857E00E90099706960546FFF7B2F9041E07DBE2
S2140857F02846694601F0E0F8B04218BF4FF0FF347B
S214085800BDF80C305B0605D5B8F80C3043F04003FD
S214085810A8F80C3020460DF58D6DBDE8F08700BF62
S2140858202F4B70B5064618680C4610B1826B002AD6
S21408583036D0A589ABB219070CD52269AAB113F0E0
S21408584001011ED0636900215B42A361A160F2B129
S214085850002070BDDA063AD55B0724D4226945F0E5
S2140858600803A3819BB2002AE9D103F42071B1F59D
S214085870007FE4D03046214601F088FCA3892269DF
S214085880DDE7980758BF6169A160002AE0D1A389BF
S2140858901A06DDD543F04003A3814FF0FF3070BDF4
S2140858A001F0A6F8C5E7216B49B104F14003994217
S2140858B003D0304601F0E0F9A58900232363226966
S2140858C025F024050021ADB222606160C7E745F0E7
